{
  "contractName": "AuctionContract",
  "abi": [
    {
      "inputs": [
        {
          "internalType": "address",
          "name": "itemAddress",
          "type": "address"
        },
        {
          "internalType": "address",
          "name": "supplyAddress",
          "type": "address"
        },
        {
          "internalType": "string",
          "name": "dirCID",
          "type": "string"
        }
      ],
      "stateMutability": "nonpayable",
      "type": "constructor"
    },
    {
      "anonymous": false,
      "inputs": [
        {
          "indexed": true,
          "internalType": "address",
          "name": "account",
          "type": "address"
        },
        {
          "indexed": true,
          "internalType": "address",
          "name": "operator",
          "type": "address"
        },
        {
          "indexed": false,
          "internalType": "bool",
          "name": "approved",
          "type": "bool"
        }
      ],
      "name": "ApprovalForAll",
      "type": "event"
    },
    {
      "anonymous": false,
      "inputs": [
        {
          "indexed": true,
          "internalType": "address",
          "name": "operator",
          "type": "address"
        },
        {
          "indexed": true,
          "internalType": "address",
          "name": "from",
          "type": "address"
        },
        {
          "indexed": true,
          "internalType": "address",
          "name": "to",
          "type": "address"
        },
        {
          "indexed": false,
          "internalType": "uint256[]",
          "name": "ids",
          "type": "uint256[]"
        },
        {
          "indexed": false,
          "internalType": "uint256[]",
          "name": "values",
          "type": "uint256[]"
        }
      ],
      "name": "TransferBatch",
      "type": "event"
    },
    {
      "anonymous": false,
      "inputs": [
        {
          "indexed": true,
          "internalType": "address",
          "name": "operator",
          "type": "address"
        },
        {
          "indexed": true,
          "internalType": "address",
          "name": "from",
          "type": "address"
        },
        {
          "indexed": true,
          "internalType": "address",
          "name": "to",
          "type": "address"
        },
        {
          "indexed": false,
          "internalType": "uint256",
          "name": "id",
          "type": "uint256"
        },
        {
          "indexed": false,
          "internalType": "uint256",
          "name": "value",
          "type": "uint256"
        }
      ],
      "name": "TransferSingle",
      "type": "event"
    },
    {
      "anonymous": false,
      "inputs": [
        {
          "indexed": false,
          "internalType": "string",
          "name": "value",
          "type": "string"
        },
        {
          "indexed": true,
          "internalType": "uint256",
          "name": "id",
          "type": "uint256"
        }
      ],
      "name": "URI",
      "type": "event"
    },
    {
      "inputs": [
        {
          "internalType": "uint256",
          "name": "",
          "type": "uint256"
        },
        {
          "internalType": "uint256",
          "name": "",
          "type": "uint256"
        }
      ],
      "name": "_auctionBids",
      "outputs": [
        {
          "internalType": "address payable",
          "name": "from",
          "type": "address"
        },
        {
          "internalType": "uint256",
          "name": "amount",
          "type": "uint256"
        },
        {
          "internalType": "uint256",
          "name": "timestamp",
          "type": "uint256"
        },
        {
          "internalType": "string",
          "name": "shippingTo",
          "type": "string"
        }
      ],
      "stateMutability": "view",
      "type": "function",
      "constant": true
    },
    {
      "inputs": [
        {
          "internalType": "address",
          "name": "account",
          "type": "address"
        },
        {
          "internalType": "uint256",
          "name": "id",
          "type": "uint256"
        }
      ],
      "name": "balanceOf",
      "outputs": [
        {
          "internalType": "uint256",
          "name": "",
          "type": "uint256"
        }
      ],
      "stateMutability": "view",
      "type": "function",
      "constant": true
    },
    {
      "inputs": [
        {
          "internalType": "address[]",
          "name": "accounts",
          "type": "address[]"
        },
        {
          "internalType": "uint256[]",
          "name": "ids",
          "type": "uint256[]"
        }
      ],
      "name": "balanceOfBatch",
      "outputs": [
        {
          "internalType": "uint256[]",
          "name": "",
          "type": "uint256[]"
        }
      ],
      "stateMutability": "view",
      "type": "function",
      "constant": true
    },
    {
      "inputs": [
        {
          "internalType": "address",
          "name": "account",
          "type": "address"
        },
        {
          "internalType": "address",
          "name": "operator",
          "type": "address"
        }
      ],
      "name": "isApprovedForAll",
      "outputs": [
        {
          "internalType": "bool",
          "name": "",
          "type": "bool"
        }
      ],
      "stateMutability": "view",
      "type": "function",
      "constant": true
    },
    {
      "inputs": [
        {
          "internalType": "address",
          "name": "from",
          "type": "address"
        },
        {
          "internalType": "address",
          "name": "to",
          "type": "address"
        },
        {
          "internalType": "uint256[]",
          "name": "ids",
          "type": "uint256[]"
        },
        {
          "internalType": "uint256[]",
          "name": "amounts",
          "type": "uint256[]"
        },
        {
          "internalType": "bytes",
          "name": "data",
          "type": "bytes"
        }
      ],
      "name": "safeBatchTransferFrom",
      "outputs": [],
      "stateMutability": "nonpayable",
      "type": "function"
    },
    {
      "inputs": [
        {
          "internalType": "address",
          "name": "from",
          "type": "address"
        },
        {
          "internalType": "address",
          "name": "to",
          "type": "address"
        },
        {
          "internalType": "uint256",
          "name": "id",
          "type": "uint256"
        },
        {
          "internalType": "uint256",
          "name": "amount",
          "type": "uint256"
        },
        {
          "internalType": "bytes",
          "name": "data",
          "type": "bytes"
        }
      ],
      "name": "safeTransferFrom",
      "outputs": [],
      "stateMutability": "nonpayable",
      "type": "function"
    },
    {
      "inputs": [
        {
          "internalType": "address",
          "name": "operator",
          "type": "address"
        },
        {
          "internalType": "bool",
          "name": "approved",
          "type": "bool"
        }
      ],
      "name": "setApprovalForAll",
      "outputs": [],
      "stateMutability": "nonpayable",
      "type": "function"
    },
    {
      "inputs": [
        {
          "internalType": "bytes4",
          "name": "interfaceId",
          "type": "bytes4"
        }
      ],
      "name": "supportsInterface",
      "outputs": [
        {
          "internalType": "bool",
          "name": "",
          "type": "bool"
        }
      ],
      "stateMutability": "view",
      "type": "function",
      "constant": true
    },
    {
      "inputs": [
        {
          "internalType": "uint256",
          "name": "",
          "type": "uint256"
        }
      ],
      "name": "uri",
      "outputs": [
        {
          "internalType": "string",
          "name": "",
          "type": "string"
        }
      ],
      "stateMutability": "view",
      "type": "function",
      "constant": true
    },
    {
      "inputs": [
        {
          "internalType": "address",
          "name": "",
          "type": "address"
        },
        {
          "internalType": "address",
          "name": "",
          "type": "address"
        },
        {
          "internalType": "uint256",
          "name": "",
          "type": "uint256"
        },
        {
          "internalType": "uint256",
          "name": "",
          "type": "uint256"
        },
        {
          "internalType": "bytes",
          "name": "",
          "type": "bytes"
        }
      ],
      "name": "onERC1155Received",
      "outputs": [
        {
          "internalType": "bytes4",
          "name": "",
          "type": "bytes4"
        }
      ],
      "stateMutability": "nonpayable",
      "type": "function"
    },
    {
      "inputs": [
        {
          "internalType": "address",
          "name": "",
          "type": "address"
        },
        {
          "internalType": "address",
          "name": "",
          "type": "address"
        },
        {
          "internalType": "uint256[]",
          "name": "",
          "type": "uint256[]"
        },
        {
          "internalType": "uint256[]",
          "name": "",
          "type": "uint256[]"
        },
        {
          "internalType": "bytes",
          "name": "",
          "type": "bytes"
        }
      ],
      "name": "onERC1155BatchReceived",
      "outputs": [
        {
          "internalType": "bytes4",
          "name": "",
          "type": "bytes4"
        }
      ],
      "stateMutability": "nonpayable",
      "type": "function"
    },
    {
      "inputs": [],
      "name": "getAuctionId",
      "outputs": [
        {
          "internalType": "uint256",
          "name": "",
          "type": "uint256"
        }
      ],
      "stateMutability": "view",
      "type": "function",
      "constant": true
    },
    {
      "inputs": [
        {
          "internalType": "uint256",
          "name": "auctionId",
          "type": "uint256"
        }
      ],
      "name": "getBidsCount",
      "outputs": [
        {
          "internalType": "uint256",
          "name": "",
          "type": "uint256"
        }
      ],
      "stateMutability": "view",
      "type": "function",
      "constant": true
    },
    {
      "inputs": [
        {
          "internalType": "uint256",
          "name": "auctionId",
          "type": "uint256"
        }
      ],
      "name": "getCurrentBid",
      "outputs": [
        {
          "internalType": "uint256",
          "name": "",
          "type": "uint256"
        }
      ],
      "stateMutability": "view",
      "type": "function",
      "constant": true
    },
    {
      "inputs": [
        {
          "internalType": "uint256",
          "name": "itemId",
          "type": "uint256"
        },
        {
          "internalType": "uint256",
          "name": "stock",
          "type": "uint256"
        },
        {
          "internalType": "string",
          "name": "shippingFrom",
          "type": "string"
        },
        {
          "internalType": "string",
          "name": "dirCID",
          "type": "string"
        }
      ],
      "name": "createAuction",
      "outputs": [],
      "stateMutability": "nonpayable",
      "type": "function"
    },
    {
      "inputs": [
        {
          "internalType": "uint256",
          "name": "auctionId",
          "type": "uint256"
        },
        {
          "internalType": "uint256",
          "name": "itemId",
          "type": "uint256"
        },
        {
          "internalType": "address",
          "name": "seller",
          "type": "address"
        },
        {
          "internalType": "uint256",
          "name": "stock",
          "type": "uint256"
        }
      ],
      "name": "cancelAuction",
      "outputs": [],
      "stateMutability": "nonpayable",
      "type": "function"
    },
    {
      "inputs": [
        {
          "internalType": "uint256",
          "name": "auctionId",
          "type": "uint256"
        },
        {
          "internalType": "uint256",
          "name": "itemId",
          "type": "uint256"
        },
        {
          "internalType": "address",
          "name": "seller",
          "type": "address"
        },
        {
          "internalType": "uint256",
          "name": "stock",
          "type": "uint256"
        },
        {
          "internalType": "uint256",
          "name": "blockDeadline",
          "type": "uint256"
        },
        {
          "internalType": "string",
          "name": "dirCID",
          "type": "string"
        }
      ],
      "name": "finalizeAuction",
      "outputs": [],
      "stateMutability": "nonpayable",
      "type": "function"
    },
    {
      "inputs": [
        {
          "internalType": "uint256",
          "name": "auctionId",
          "type": "uint256"
        },
        {
          "internalType": "uint256",
          "name": "amount",
          "type": "uint256"
        },
        {
          "internalType": "uint256",
          "name": "startPrice",
          "type": "uint256"
        },
        {
          "internalType": "uint256",
          "name": "startTime",
          "type": "uint256"
        },
        {
          "internalType": "uint256",
          "name": "blockDeadline",
          "type": "uint256"
        },
        {
          "internalType": "string",
          "name": "shippingTo",
          "type": "string"
        }
      ],
      "name": "bidOnAuction",
      "outputs": [],
      "stateMutability": "payable",
      "type": "function",
      "payable": true
    },
    {
      "inputs": [
        {
          "internalType": "uint256",
          "name": "auctionId",
          "type": "uint256"
        },
        {
          "internalType": "uint256",
          "name": "itemId",
          "type": "uint256"
        },
        {
          "internalType": "address",
          "name": "seller",
          "type": "address"
        },
        {
          "internalType": "address",
          "name": "buyer",
          "type": "address"
        }
      ],
      "name": "updateMap",
      "outputs": [],
      "stateMutability": "nonpayable",
      "type": "function"
    },
    {
      "inputs": [
        {
          "internalType": "uint256",
          "name": "itemId",
          "type": "uint256"
        }
      ],
      "name": "getMapOfUser",
      "outputs": [
        {
          "internalType": "uint256[][]",
          "name": "",
          "type": "uint256[][]"
        }
      ],
      "stateMutability": "view",
      "type": "function",
      "constant": true
    },
    {
      "inputs": [
        {
          "internalType": "uint256",
          "name": "auctionId",
          "type": "uint256"
        }
      ],
      "name": "getWinningPrice",
      "outputs": [
        {
          "internalType": "uint256",
          "name": "",
          "type": "uint256"
        }
      ],
      "stateMutability": "view",
      "type": "function",
      "constant": true
    },
    {
      "inputs": [
        {
          "internalType": "uint256",
          "name": "auctionId",
          "type": "uint256"
        }
      ],
      "name": "getBidderInfo",
      "outputs": [
        {
          "components": [
            {
              "internalType": "address payable",
              "name": "from",
              "type": "address"
            },
            {
              "internalType": "uint256",
              "name": "amount",
              "type": "uint256"
            },
            {
              "internalType": "uint256",
              "name": "timestamp",
              "type": "uint256"
            },
            {
              "internalType": "string",
              "name": "shippingTo",
              "type": "string"
            }
          ],
          "internalType": "struct AuctionContract.Bid",
          "name": "",
          "type": "tuple"
        }
      ],
      "stateMutability": "view",
      "type": "function",
      "constant": true
    },
    {
      "inputs": [],
      "name": "setGovernance",
      "outputs": [],
      "stateMutability": "nonpayable",
      "type": "function"
    },
    {
      "inputs": [],
      "name": "getGovernance",
      "outputs": [
        {
          "internalType": "address payable",
          "name": "",
          "type": "address"
        }
      ],
      "stateMutability": "view",
      "type": "function",
      "constant": true
    },
    {
      "inputs": [],
      "name": "getDeliveryList",
      "outputs": [
        {
          "internalType": "uint256[]",
          "name": "",
          "type": "uint256[]"
        }
      ],
      "stateMutability": "view",
      "type": "function",
      "constant": true
    }
  ],
  "bytecode": "0x608060405260405180604001604052806040518060400160405280601581526020017f68747470733a2f2f697066732e696f2f697066732f000000000000000000000081525081526020016040518060400160405280600a81526020017f2f7b69647d2e6a736f6e000000000000000000000000000000000000000000008152508152506007906002620000959291906200023b565b50348015620000a357600080fd5b506040516200666b3803806200666b8339818101604052810190620000c991906200051d565b6007600060028110620000e157620000e062000598565b5b0181604051602001620000f69291906200071c565b60405160208183030381529060405260076001600281106200011d576200011c62000598565b5b016040516020016200013192919062000744565b60405160208183030381529060405262000151816200022660201b60201c565b50600160068190555082600360006101000a81548173ffffffffffffffffffffffffffffffffffffffff021916908373ffffffffffffffffffffffffffffffffffffffff16021790555081600460006101000a81548173ffffffffffffffffffffffffffffffffffffffff021916908373ffffffffffffffffffffffffffffffffffffffff16021790555033600560006101000a81548173ffffffffffffffffffffffffffffffffffffffff021916908373ffffffffffffffffffffffffffffffffffffffff16021790555050505062000a1a565b806002908162000237919062000933565b5050565b82600281019282156200027b579160200282015b828111156200027a57825182908162000269919062000933565b50916020019190600101906200024f565b5b5090506200028a91906200028e565b5090565b5b80821115620002b25760008181620002a89190620002b6565b506001016200028f565b5090565b508054620002c490620005f6565b6000825580601f10620002d85750620002f9565b601f016020900490600052602060002090810190620002f89190620002fc565b5b50565b5b8082111562000317576000816000905550600101620002fd565b5090565b6000604051905090565b600080fd5b600080fd5b600073ffffffffffffffffffffffffffffffffffffffff82169050919050565b60006200035c826200032f565b9050919050565b6200036e816200034f565b81146200037a57600080fd5b50565b6000815190506200038e8162000363565b92915050565b600080fd5b600080fd5b6000601f19601f8301169050919050565b7f4e487b7100000000000000000000000000000000000000000000000000000000600052604160045260246000fd5b620003e9826200039e565b810181811067ffffffffffffffff821117156200040b576200040a620003af565b5b80604052505050565b6000620004206200031b565b90506200042e8282620003de565b919050565b600067ffffffffffffffff821115620004515762000450620003af565b5b6200045c826200039e565b9050602081019050919050565b60005b83811015620004895780820151818401526020810190506200046c565b8381111562000499576000848401525b50505050565b6000620004b6620004b08462000433565b62000414565b905082815260208101848484011115620004d557620004d462000399565b5b620004e284828562000469565b509392505050565b600082601f83011262000502576200050162000394565b5b8151620005148482602086016200049f565b91505092915050565b60008060006060848603121562000539576200053862000325565b5b600062000549868287016200037d565b93505060206200055c868287016200037d565b925050604084015167ffffffffffffffff81111562000580576200057f6200032a565b5b6200058e86828701620004ea565b9150509250925092565b7f4e487b7100000000000000000000000000000000000000000000000000000000600052603260045260246000fd5b7f4e487b7100000000000000000000000000000000000000000000000000000000600052602260045260246000fd5b600060028204905060018216806200060f57607f821691505b602082108103620006255762000624620005c7565b5b50919050565b600081905092915050565b60008190508160005260206000209050919050565b600081546200065a81620005f6565b6200066681866200062b565b945060018216600081146200068457600181146200069a57620006d1565b60ff1983168652811515820286019350620006d1565b620006a58562000636565b60005b83811015620006c957815481890152600182019150602081019050620006a8565b838801955050505b50505092915050565b600081519050919050565b6000620006f282620006da565b620006fe81856200062b565b93506200071081856020860162000469565b80840191505092915050565b60006200072a82856200064b565b9150620007388284620006e5565b91508190509392505050565b6000620007528285620006e5565b91506200076082846200064b565b91508190509392505050565b60006020601f8301049050919050565b600082821b905092915050565b600060088302620007bb7fffffffffffffffffffffffffffffffffffffffffffffffffffffffffffffffff826200077c565b620007c786836200077c565b95508019841693508086168417925050509392505050565b6000819050919050565b6000819050919050565b6000620008146200080e6200080884620007df565b620007e9565b620007df565b9050919050565b6000819050919050565b6200083083620007f3565b620008486200083f826200081b565b84845462000789565b825550505050565b600090565b6200085f62000850565b6200086c81848462000825565b505050565b5b8181101562000894576200088860008262000855565b60018101905062000872565b5050565b601f821115620008e357620008ad8162000636565b620008b8846200076c565b81016020851015620008c8578190505b620008e0620008d7856200076c565b83018262000871565b50505b505050565b600082821c905092915050565b60006200090860001984600802620008e8565b1980831691505092915050565b6000620009238383620008f5565b9150826002028217905092915050565b6200093e82620006da565b67ffffffffffffffff8111156200095a5762000959620003af565b5b620009668254620005f6565b6200097382828562000898565b600060209050601f831160018114620009ab576000841562000996578287015190505b620009a2858262000915565b86555062000a12565b601f198416620009bb8662000636565b60005b82811015620009e557848901518255600182019150602085019450602081019050620009be565b8683101562000a05578489015162000a01601f891682620008f5565b8355505b6001600288020188555050505b505050505050565b615c418062000a2a6000396000f3fe6080604052600436106101645760003560e01c806391d390dc116100d1578063cdc90bfe1161008a578063f23a6e6111610064578063f23a6e6114610578578063f242432a146105b5578063fa96fec4146105de578063ff6a6d651461061b57610164565b8063cdc90bfe146104d3578063da4e364f146104fe578063e985e9c51461053b57610164565b806391d390dc146103d157806398b0432114610411578063a22cb4651461042d578063bc197c8114610456578063be89bdd314610493578063cafab788146104bc57610164565b80634008f9c0116101235780634008f9c01461029f5780634e1273f4146102dc578063576c4e6d1461031957806371f868e1146103565780637e63495f1461037f5780638d7a686f146103a857610164565b8062d93b7c14610169578062fdd58e1461019457806301ffc9a7146101d15780630e89341c1461020e578063289b3c0d1461024b5780632eb2c2d614610276575b600080fd5b34801561017557600080fd5b5061017e610658565b60405161018b9190613ab2565b60405180910390f35b3480156101a057600080fd5b506101bb60048036038101906101b69190613b72565b6107a3565b6040516101c89190613bc1565b60405180910390f35b3480156101dd57600080fd5b506101f860048036038101906101f39190613c34565b61086b565b6040516102059190613c7c565b60405180910390f35b34801561021a57600080fd5b5061023560048036038101906102309190613c97565b61094d565b6040516102429190613d5d565b60405180910390f35b34801561025757600080fd5b506102606109e1565b60405161026d9190613da0565b60405180910390f35b34801561028257600080fd5b5061029d60048036038101906102989190613fb8565b610a0b565b005b3480156102ab57600080fd5b506102c660048036038101906102c19190613c97565b610aac565b6040516102d39190613bc1565b60405180910390f35b3480156102e857600080fd5b5061030360048036038101906102fe919061414a565b610acc565b6040516103109190613ab2565b60405180910390f35b34801561032557600080fd5b50610340600480360381019061033b9190613c97565b610be5565b60405161034d91906142f3565b60405180910390f35b34801561036257600080fd5b5061037d60048036038101906103789190614315565b610cd4565b005b34801561038b57600080fd5b506103a660048036038101906103a1919061437c565b6110cb565b005b3480156103b457600080fd5b506103cf60048036038101906103ca9190614484565b611420565b005b3480156103dd57600080fd5b506103f860048036038101906103f3919061452d565b611990565b604051610408949392919061456d565b60405180910390f35b61042b600480360381019061042691906145b9565b611a85565b005b34801561043957600080fd5b50610454600480360381019061044f919061468e565b611f37565b005b34801561046257600080fd5b5061047d60048036038101906104789190613fb8565b611f4d565b60405161048a91906146dd565b60405180910390f35b34801561049f57600080fd5b506104ba60048036038101906104b591906146f8565b611f62565b005b3480156104c857600080fd5b506104d1612212565b005b3480156104df57600080fd5b506104e86122af565b6040516104f59190613bc1565b60405180910390f35b34801561050a57600080fd5b5061052560048036038101906105209190613c97565b6122b9565b6040516105329190613bc1565b60405180910390f35b34801561054757600080fd5b50610562600480360381019061055d9190614797565b612441565b60405161056f9190613c7c565b60405180910390f35b34801561058457600080fd5b5061059f600480360381019061059a91906147d7565b6124d5565b6040516105ac91906146dd565b60405180910390f35b3480156105c157600080fd5b506105dc60048036038101906105d791906147d7565b6124ea565b005b3480156105ea57600080fd5b5061060560048036038101906106009190613c97565b61258b565b6040516106129190613bc1565b60405180910390f35b34801561062757600080fd5b50610642600480360381019061063d9190613c97565b6125f2565b60405161064f919061492a565b60405180910390f35b6060600060065467ffffffffffffffff81111561067857610677613dc0565b5b6040519080825280602002602001820160405280156106a65781602001602082028036833780820191505090505b5090506000805b60065481101561079a57600460009054906101000a900473ffffffffffffffffffffffffffffffffffffffff1673ffffffffffffffffffffffffffffffffffffffff16639dedddec826040518263ffffffff1660e01b81526004016107129190613bc1565b602060405180830381865afa15801561072f573d6000803e3d6000fd5b505050506040513d601f19601f820116820180604052508101906107539190614961565b15610787578083838151811061076c5761076b61498e565b5b6020026020010181815250508180610783906149ec565b9250505b8080610792906149ec565b9150506106ad565b50819250505090565b60008073ffffffffffffffffffffffffffffffffffffffff168373ffffffffffffffffffffffffffffffffffffffff1603610813576040517f08c379a000000000000000000000000000000000000000000000000000000000815260040161080a90614aa6565b60405180910390fd5b60008083815260200190815260200160002060008473ffffffffffffffffffffffffffffffffffffffff1673ffffffffffffffffffffffffffffffffffffffff16815260200190815260200160002054905092915050565b60007fd9b67a26000000000000000000000000000000000000000000000000000000007bffffffffffffffffffffffffffffffffffffffffffffffffffffffff1916827bffffffffffffffffffffffffffffffffffffffffffffffffffffffff1916148061093657507f0e89341c000000000000000000000000000000000000000000000000000000007bffffffffffffffffffffffffffffffffffffffffffffffffffffffff1916827bffffffffffffffffffffffffffffffffffffffffffffffffffffffff1916145b806109465750610945826128b2565b5b9050919050565b60606002805461095c90614af5565b80601f016020809104026020016040519081016040528092919081815260200182805461098890614af5565b80156109d55780601f106109aa576101008083540402835291602001916109d5565b820191906000526020600020905b8154815290600101906020018083116109b857829003601f168201915b50505050509050919050565b6000600560009054906101000a900473ffffffffffffffffffffffffffffffffffffffff16905090565b610a1361291c565b73ffffffffffffffffffffffffffffffffffffffff168573ffffffffffffffffffffffffffffffffffffffff161480610a595750610a5885610a5361291c565b612441565b5b610a98576040517f08c379a0000000000000000000000000000000000000000000000000000000008152600401610a8f90614b98565b60405180910390fd5b610aa58585858585612924565b5050505050565b600060096000838152602001908152602001600020805490509050919050565b60608151835114610b12576040517f08c379a0000000000000000000000000000000000000000000000000000000008152600401610b0990614c2a565b60405180910390fd5b6000835167ffffffffffffffff811115610b2f57610b2e613dc0565b5b604051908082528060200260200182016040528015610b5d5781602001602082028036833780820191505090505b50905060005b8451811015610bda57610baa858281518110610b8257610b8161498e565b5b6020026020010151858381518110610b9d57610b9c61498e565b5b60200260200101516107a3565b828281518110610bbd57610bbc61498e565b5b60200260200101818152505080610bd3906149ec565b9050610b63565b508091505092915050565b6060600b60003373ffffffffffffffffffffffffffffffffffffffff1673ffffffffffffffffffffffffffffffffffffffff1681526020019081526020016000206000838152602001908152602001600020805480602002602001604051908101604052809291908181526020016000905b82821015610cc957838290600052602060002001805480602002602001604051908101604052809291908181526020018280548015610cb557602002820191906000526020600020905b815481526020019060010190808311610ca1575b505050505081526020019060010190610c57565b505050509050919050565b83600c600082815260200190815260200160002060009054906101000a900473ffffffffffffffffffffffffffffffffffffffff1673ffffffffffffffffffffffffffffffffffffffff163373ffffffffffffffffffffffffffffffffffffffff1614610d4057600080fd5b6000600960008781526020019081526020016000208054905090506000811115610f6e57600060096000888152602001908152602001600020600183610d869190614c4a565b81548110610d9757610d9661498e565b5b90600052602060002090600402016040518060800160405290816000820160009054906101000a900473ffffffffffffffffffffffffffffffffffffffff1673ffffffffffffffffffffffffffffffffffffffff1673ffffffffffffffffffffffffffffffffffffffff1681526020016001820154815260200160028201548152602001600382018054610e2a90614af5565b80601f0160208091040260200160405190810160405280929190818152602001828054610e5690614af5565b8015610ea35780601f10610e7857610100808354040283529160200191610ea3565b820191906000526020600020905b815481529060010190602001808311610e8657829003601f168201915b5050505050815250509050600360009054906101000a900473ffffffffffffffffffffffffffffffffffffffff1673ffffffffffffffffffffffffffffffffffffffff1663f242432a600560009054906101000a900473ffffffffffffffffffffffffffffffffffffffff168360000151600085602001516040518563ffffffff1660e01b8152600401610f3a9493929190614d4f565b600060405180830381600087803b158015610f5457600080fd5b505af1158015610f68573d6000803e3d6000fd5b50505050505b600360009054906101000a900473ffffffffffffffffffffffffffffffffffffffff1673ffffffffffffffffffffffffffffffffffffffff1663f242432a600560009054906101000a900473ffffffffffffffffffffffffffffffffffffffff168688876040518563ffffffff1660e01b8152600401610ff19493929190614db6565b600060405180830381600087803b15801561100b57600080fd5b505af115801561101f573d6000803e3d6000fd5b50505050611051600560009054906101000a900473ffffffffffffffffffffffffffffffffffffffff16876001612c45565b6000600c600088815260200190815260200160002060006101000a81548173ffffffffffffffffffffffffffffffffffffffff021916908373ffffffffffffffffffffffffffffffffffffffff160217905550600a600087815260200190815260200160002060006110c391906138b0565b505050505050565b6000600b60008473ffffffffffffffffffffffffffffffffffffffff1673ffffffffffffffffffffffffffffffffffffffff1681526020019081526020016000206000858152602001908152602001600020805490509050600081036111ca5760006040518060200160405280878152509050600b60008473ffffffffffffffffffffffffffffffffffffffff1673ffffffffffffffffffffffffffffffffffffffff168152602001908152602001600020600086815260200190815260200160002081908060018154018082558091505060019003906000526020600020016000909190919091509060016111c29291906138f0565b50505061141a565b60005b600b60008573ffffffffffffffffffffffffffffffffffffffff1673ffffffffffffffffffffffffffffffffffffffff168152602001908152602001600020600086815260200190815260200160002080549050811015611417576000600b60008573ffffffffffffffffffffffffffffffffffffffff1673ffffffffffffffffffffffffffffffffffffffff1681526020019081526020016000206000878152602001908152602001600020805490509050600b60008573ffffffffffffffffffffffffffffffffffffffff1673ffffffffffffffffffffffffffffffffffffffff1681526020019081526020016000206000878152602001908152602001600020600b60008773ffffffffffffffffffffffffffffffffffffffff1673ffffffffffffffffffffffffffffffffffffffff168152602001908152602001600020600088815260200190815260200160002083815481106113325761133161498e565b5b906000526020600020019080600181540180825580915050600190039060005260206000200160009091909190915090805461136f92919061393d565b50600b60008573ffffffffffffffffffffffffffffffffffffffff1673ffffffffffffffffffffffffffffffffffffffff168152602001908152602001600020600087815260200190815260200160002081815481106113d2576113d161498e565b5b9060005260206000200187908060018154018082558091505060019003906000526020600020016000909190919091505550808061140f906149ec565b9150506111cd565b50505b50505050565b85600c600082815260200190815260200160002060009054906101000a900473ffffffffffffffffffffffffffffffffffffffff1673ffffffffffffffffffffffffffffffffffffffff163373ffffffffffffffffffffffffffffffffffffffff161461148c57600080fd5b6000600960008981526020019081526020016000208054905090506000429050600060076000600281106114c3576114c261498e565b5b01856040516020016114d6929190614ee2565b60405160208183030381529060405260076001600281106114fa576114f961498e565b5b0160405160200161150c929190614f06565b604051602081830303815290604052905061152681612e8b565b8582101561153357600080fd5b6000830361154c576115478a8a8a8a610cd4565b611984565b6000600960008c815260200190815260200160002060018561156e9190614c4a565b8154811061157f5761157e61498e565b5b90600052602060002090600402016040518060800160405290816000820160009054906101000a900473ffffffffffffffffffffffffffffffffffffffff1673ffffffffffffffffffffffffffffffffffffffff1673ffffffffffffffffffffffffffffffffffffffff168152602001600182015481526020016002820154815260200160038201805461161290614af5565b80601f016020809104026020016040519081016040528092919081815260200182805461163e90614af5565b801561168b5780601f106116605761010080835404028352916020019161168b565b820191906000526020600020905b81548152906001019060200180831161166e57829003601f168201915b50505050508152505090506116a68160000151336001612e9e565b6116d4600560009054906101000a900473ffffffffffffffffffffffffffffffffffffffff16336001612e9e565b600360009054906101000a900473ffffffffffffffffffffffffffffffffffffffff1673ffffffffffffffffffffffffffffffffffffffff1663f242432a600560009054906101000a900473ffffffffffffffffffffffffffffffffffffffff1633600085602001516040518563ffffffff1660e01b815260040161175c9493929190614f2a565b600060405180830381600087803b15801561177657600080fd5b505af115801561178a573d6000803e3d6000fd5b50505050600360009054906101000a900473ffffffffffffffffffffffffffffffffffffffff1673ffffffffffffffffffffffffffffffffffffffff1663f242432a600560009054906101000a900473ffffffffffffffffffffffffffffffffffffffff1683600001518d8c6040518563ffffffff1660e01b81526004016118159493929190614f82565b600060405180830381600087803b15801561182f57600080fd5b505af1158015611843573d6000803e3d6000fd5b50505050611886600560009054906101000a900473ffffffffffffffffffffffffffffffffffffffff168a8d6001604051806020016040528060008152506124ea565b6118a78982600001518d6001604051806020016040528060008152506124ea565b6118b78160000151336000612e9e565b6118e5600560009054906101000a900473ffffffffffffffffffffffffffffffffffffffff16336000612e9e565b6118f58b8b8b84600001516110cb565b600460009054906101000a900473ffffffffffffffffffffffffffffffffffffffff1673ffffffffffffffffffffffffffffffffffffffff1663d9f235e78c6040518263ffffffff1660e01b81526004016119509190613bc1565b600060405180830381600087803b15801561196a57600080fd5b505af115801561197e573d6000803e3d6000fd5b50505050505b50505050505050505050565b600960205281600052604060002081815481106119ac57600080fd5b9060005260206000209060040201600091509150508060000160009054906101000a900473ffffffffffffffffffffffffffffffffffffffff1690806001015490806002015490806003018054611a0290614af5565b80601f0160208091040260200160405190810160405280929190818152602001828054611a2e90614af5565b8015611a7b5780601f10611a5057610100808354040283529160200191611a7b565b820191906000526020600020905b815481529060010190602001808311611a5e57829003601f168201915b5050505050905084565b6000429050808411158015611a9a5750828111155b611aa357600080fd5b6000600960008981526020019081526020016000208054905090506000869050611acb61398f565b88821115611b0e576040517f08c379a0000000000000000000000000000000000000000000000000000000008152600401611b0590615026565b60405180910390fd5b600360009054906101000a900473ffffffffffffffffffffffffffffffffffffffff1673ffffffffffffffffffffffffffffffffffffffff1663f242432a33600560009054906101000a900473ffffffffffffffffffffffffffffffffffffffff1660008d6040518563ffffffff1660e01b8152600401611b929493929190615046565b600060405180830381600087803b158015611bac57600080fd5b505af1158015611bc0573d6000803e3d6000fd5b505050506000831115611e1d57600960008b8152602001908152602001600020600184611bed9190614c4a565b81548110611bfe57611bfd61498e565b5b90600052602060002090600402016040518060800160405290816000820160009054906101000a900473ffffffffffffffffffffffffffffffffffffffff1673ffffffffffffffffffffffffffffffffffffffff1673ffffffffffffffffffffffffffffffffffffffff1681526020016001820154815260200160028201548152602001600382018054611c9190614af5565b80601f0160208091040260200160405190810160405280929190818152602001828054611cbd90614af5565b8015611d0a5780601f10611cdf57610100808354040283529160200191611d0a565b820191906000526020600020905b815481529060010190602001808311611ced57829003601f168201915b505050505081525050905080602001519150818911611d5e576040517f08c379a0000000000000000000000000000000000000000000000000000000008152600401611d55906150ea565b60405180910390fd5b600360009054906101000a900473ffffffffffffffffffffffffffffffffffffffff1673ffffffffffffffffffffffffffffffffffffffff1663f242432a600560009054906101000a900473ffffffffffffffffffffffffffffffffffffffff168360000151600085602001516040518563ffffffff1660e01b8152600401611dea9493929190614d4f565b600060405180830381600087803b158015611e0457600080fd5b505af1158015611e18573d6000803e3d6000fd5b505050505b611e2561398f565b85816060018190525033816000019073ffffffffffffffffffffffffffffffffffffffff16908173ffffffffffffffffffffffffffffffffffffffff16815250508981602001818152505084816040018181525050600960008c815260200190815260200160002081908060018154018082558091505060019003906000526020600020906004020160009091909190915060008201518160000160006101000a81548173ffffffffffffffffffffffffffffffffffffffff021916908373ffffffffffffffffffffffffffffffffffffffff16021790555060208201518160010155604082015181600201556060820151816003019081611f279190615297565b5050505050505050505050505050565b611f49611f4261291c565b8383612e9e565b5050565b600063bc197c8160e01b905095945050505050565b836000600360009054906101000a900473ffffffffffffffffffffffffffffffffffffffff1673ffffffffffffffffffffffffffffffffffffffff1662fdd58e33846040518363ffffffff1660e01b8152600401611fc1929190615369565b602060405180830381865afa158015611fde573d6000803e3d6000fd5b505050506040513d601f19601f8201168201806040525081019061200291906153a7565b1161200c57600080fd5b600060076000600281106120235761202261498e565b5b0183604051602001612036929190614ee2565b604051602081830303815290604052600760016002811061205a5761205961498e565b5b0160405160200161206c929190614f06565b604051602081830303815290604052905061208681612e8b565b6120c6600560009054906101000a900473ffffffffffffffffffffffffffffffffffffffff1660065460016040518060200160405280600081525061300a565b600360009054906101000a900473ffffffffffffffffffffffffffffffffffffffff1673ffffffffffffffffffffffffffffffffffffffff1663f242432a33600560009054906101000a900473ffffffffffffffffffffffffffffffffffffffff1689896040518563ffffffff1660e01b815260040161214994939291906153d4565b600060405180830381600087803b15801561216357600080fd5b505af1158015612177573d6000803e3d6000fd5b5050505033600c6000600654815260200190815260200160002060006101000a81548173ffffffffffffffffffffffffffffffffffffffff021916908373ffffffffffffffffffffffffffffffffffffffff16021790555083600a6000600654815260200190815260200160002090816121f19190615297565b5060066000815480929190612205906149ec565b9190505550505050505050565b600560009054906101000a900473ffffffffffffffffffffffffffffffffffffffff1673ffffffffffffffffffffffffffffffffffffffff163373ffffffffffffffffffffffffffffffffffffffff161461226c57600080fd5b30600560006101000a81548173ffffffffffffffffffffffffffffffffffffffff021916908373ffffffffffffffffffffffffffffffffffffffff160217905550565b6000600654905090565b600080600960008481526020019081526020016000208054905090506000811115612436576000600960008581526020019081526020016000206001836123009190614c4a565b815481106123115761231061498e565b5b90600052602060002090600402016040518060800160405290816000820160009054906101000a900473ffffffffffffffffffffffffffffffffffffffff1673ffffffffffffffffffffffffffffffffffffffff1673ffffffffffffffffffffffffffffffffffffffff16815260200160018201548152602001600282015481526020016003820180546123a490614af5565b80601f01602080910402602001604051908101604052809291908181526020018280546123d090614af5565b801561241d5780601f106123f25761010080835404028352916020019161241d565b820191906000526020600020905b81548152906001019060200180831161240057829003601f168201915b505050505081525050905080602001519250505061243c565b60009150505b919050565b6000600160008473ffffffffffffffffffffffffffffffffffffffff1673ffffffffffffffffffffffffffffffffffffffff16815260200190815260200160002060008373ffffffffffffffffffffffffffffffffffffffff1673ffffffffffffffffffffffffffffffffffffffff16815260200190815260200160002060009054906101000a900460ff16905092915050565b600063f23a6e6160e01b905095945050505050565b6124f261291c565b73ffffffffffffffffffffffffffffffffffffffff168573ffffffffffffffffffffffffffffffffffffffff16148061253857506125378561253261291c565b612441565b5b612577576040517f08c379a000000000000000000000000000000000000000000000000000000000815260040161256e90614b98565b60405180910390fd5b61258485858585856131ba565b5050505050565b60008060096000848152602001908152602001600020805490509050600960008481526020019081526020016000206001826125c79190614c4a565b815481106125d8576125d761498e565b5b906000526020600020906004020160010154915050919050565b6125fa61398f565b600060096000848152602001908152602001600020805480602002602001604051908101604052809291908181526020016000905b8282101561275d57838290600052602060002090600402016040518060800160405290816000820160009054906101000a900473ffffffffffffffffffffffffffffffffffffffff1673ffffffffffffffffffffffffffffffffffffffff1673ffffffffffffffffffffffffffffffffffffffff16815260200160018201548152602001600282015481526020016003820180546126cc90614af5565b80601f01602080910402602001604051908101604052809291908181526020018280546126f890614af5565b80156127455780601f1061271a57610100808354040283529160200191612745565b820191906000526020600020905b81548152906001019060200180831161272857829003601f168201915b5050505050815250508152602001906001019061262f565b50505050905060096000848152602001908152602001600020600182516127849190614c4a565b815481106127955761279461498e565b5b90600052602060002090600402016040518060800160405290816000820160009054906101000a900473ffffffffffffffffffffffffffffffffffffffff1673ffffffffffffffffffffffffffffffffffffffff1673ffffffffffffffffffffffffffffffffffffffff168152602001600182015481526020016002820154815260200160038201805461282890614af5565b80601f016020809104026020016040519081016040528092919081815260200182805461285490614af5565b80156128a15780601f10612876576101008083540402835291602001916128a1565b820191906000526020600020905b81548152906001019060200180831161288457829003601f168201915b505050505081525050915050919050565b60007f01ffc9a7000000000000000000000000000000000000000000000000000000007bffffffffffffffffffffffffffffffffffffffffffffffffffffffff1916827bffffffffffffffffffffffffffffffffffffffffffffffffffffffff1916149050919050565b600033905090565b8151835114612968576040517f08c379a000000000000000000000000000000000000000000000000000000000815260040161295f9061549e565b60405180910390fd5b600073ffffffffffffffffffffffffffffffffffffffff168473ffffffffffffffffffffffffffffffffffffffff16036129d7576040517f08c379a00000000000000000000000000000000000000000000000000000000081526004016129ce90615530565b60405180910390fd5b60006129e161291c565b90506129f1818787878787613455565b60005b8451811015612ba2576000858281518110612a1257612a1161498e565b5b602002602001015190506000858381518110612a3157612a3061498e565b5b60200260200101519050600080600084815260200190815260200160002060008b73ffffffffffffffffffffffffffffffffffffffff1673ffffffffffffffffffffffffffffffffffffffff16815260200190815260200160002054905081811015612ad2576040517f08c379a0000000000000000000000000000000000000000000000000000000008152600401612ac9906155c2565b60405180910390fd5b81810360008085815260200190815260200160002060008c73ffffffffffffffffffffffffffffffffffffffff1673ffffffffffffffffffffffffffffffffffffffff168152602001908152602001600020819055508160008085815260200190815260200160002060008b73ffffffffffffffffffffffffffffffffffffffff1673ffffffffffffffffffffffffffffffffffffffff1681526020019081526020016000206000828254612b8791906155e2565b9250508190555050505080612b9b906149ec565b90506129f4565b508473ffffffffffffffffffffffffffffffffffffffff168673ffffffffffffffffffffffffffffffffffffffff168273ffffffffffffffffffffffffffffffffffffffff167f4a39dc06d4c0dbc64b70af90fd698a233a518aa5d07e595d983b8c0526c8f7fb8787604051612c19929190615638565b60405180910390a4612c2f81878787878761345d565b612c3d818787878787613465565b505050505050565b600073ffffffffffffffffffffffffffffffffffffffff168373ffffffffffffffffffffffffffffffffffffffff1603612cb4576040517f08c379a0000000000000000000000000000000000000000000000000000000008152600401612cab906156e1565b60405180910390fd5b6000612cbe61291c565b90506000612ccb8461363c565b90506000612cd88461363c565b9050612cf883876000858560405180602001604052806000815250613455565b600080600087815260200190815260200160002060008873ffffffffffffffffffffffffffffffffffffffff1673ffffffffffffffffffffffffffffffffffffffff16815260200190815260200160002054905084811015612d8f576040517f08c379a0000000000000000000000000000000000000000000000000000000008152600401612d8690615773565b60405180910390fd5b84810360008088815260200190815260200160002060008973ffffffffffffffffffffffffffffffffffffffff1673ffffffffffffffffffffffffffffffffffffffff16815260200190815260200160002081905550600073ffffffffffffffffffffffffffffffffffffffff168773ffffffffffffffffffffffffffffffffffffffff168573ffffffffffffffffffffffffffffffffffffffff167fc3d58168c5ae7397731d063d5bbf3d657854427343f4c083240f7aacaa2d0f628989604051612e5c929190615793565b60405180910390a4612e828488600086866040518060200160405280600081525061345d565b50505050505050565b8060029081612e9a9190615297565b5050565b8173ffffffffffffffffffffffffffffffffffffffff168373ffffffffffffffffffffffffffffffffffffffff1603612f0c576040517f08c379a0000000000000000000000000000000000000000000000000000000008152600401612f039061582e565b60405180910390fd5b80600160008573ffffffffffffffffffffffffffffffffffffffff1673ffffffffffffffffffffffffffffffffffffffff16815260200190815260200160002060008473ffffffffffffffffffffffffffffffffffffffff1673ffffffffffffffffffffffffffffffffffffffff16815260200190815260200160002060006101000a81548160ff0219169083151502179055508173ffffffffffffffffffffffffffffffffffffffff168373ffffffffffffffffffffffffffffffffffffffff167f17307eab39ab6107e8899845ad3d59bd9653f200f220920489ca2b5937696c3183604051612ffd9190613c7c565b60405180910390a3505050565b600073ffffffffffffffffffffffffffffffffffffffff168473ffffffffffffffffffffffffffffffffffffffff1603613079576040517f08c379a0000000000000000000000000000000000000000000000000000000008152600401613070906158c0565b60405180910390fd5b600061308361291c565b905060006130908561363c565b9050600061309d8561363c565b90506130ae83600089858589613455565b8460008088815260200190815260200160002060008973ffffffffffffffffffffffffffffffffffffffff1673ffffffffffffffffffffffffffffffffffffffff168152602001908152602001600020600082825461310d91906155e2565b925050819055508673ffffffffffffffffffffffffffffffffffffffff16600073ffffffffffffffffffffffffffffffffffffffff168473ffffffffffffffffffffffffffffffffffffffff167fc3d58168c5ae7397731d063d5bbf3d657854427343f4c083240f7aacaa2d0f62898960405161318b929190615793565b60405180910390a46131a28360008985858961345d565b6131b1836000898989896136b6565b50505050505050565b600073ffffffffffffffffffffffffffffffffffffffff168473ffffffffffffffffffffffffffffffffffffffff1603613229576040517f08c379a000000000000000000000000000000000000000000000000000000000815260040161322090615530565b60405180910390fd5b600061323361291c565b905060006132408561363c565b9050600061324d8561363c565b905061325d838989858589613455565b600080600088815260200190815260200160002060008a73ffffffffffffffffffffffffffffffffffffffff1673ffffffffffffffffffffffffffffffffffffffff168152602001908152602001600020549050858110156132f4576040517f08c379a00000000000000000000000000000000000000000000000000000000081526004016132eb906155c2565b60405180910390fd5b85810360008089815260200190815260200160002060008b73ffffffffffffffffffffffffffffffffffffffff1673ffffffffffffffffffffffffffffffffffffffff168152602001908152602001600020819055508560008089815260200190815260200160002060008a73ffffffffffffffffffffffffffffffffffffffff1673ffffffffffffffffffffffffffffffffffffffff16815260200190815260200160002060008282546133a991906155e2565b925050819055508773ffffffffffffffffffffffffffffffffffffffff168973ffffffffffffffffffffffffffffffffffffffff168573ffffffffffffffffffffffffffffffffffffffff167fc3d58168c5ae7397731d063d5bbf3d657854427343f4c083240f7aacaa2d0f628a8a604051613426929190615793565b60405180910390a461343c848a8a86868a61345d565b61344a848a8a8a8a8a6136b6565b505050505050505050565b505050505050565b505050505050565b6134848473ffffffffffffffffffffffffffffffffffffffff1661388d565b15613634578373ffffffffffffffffffffffffffffffffffffffff1663bc197c8187878686866040518663ffffffff1660e01b81526004016134ca959493929190615924565b6020604051808303816000875af192505050801561350657506040513d601f19601f8201168201806040525081019061350391906159a1565b60015b6135ab576135126159db565b806308c379a00361356e57506135266159fd565b806135315750613570565b806040517f08c379a00000000000000000000000000000000000000000000000000000000081526004016135659190613d5d565b60405180910390fd5b505b6040517f08c379a00000000000000000000000000000000000000000000000000000000081526004016135a290615aff565b60405180910390fd5b63bc197c8160e01b7bffffffffffffffffffffffffffffffffffffffffffffffffffffffff1916817bffffffffffffffffffffffffffffffffffffffffffffffffffffffff191614613632576040517f08c379a000000000000000000000000000000000000000000000000000000000815260040161362990615b91565b60405180910390fd5b505b505050505050565b60606000600167ffffffffffffffff81111561365b5761365a613dc0565b5b6040519080825280602002602001820160405280156136895781602001602082028036833780820191505090505b50905082816000815181106136a1576136a061498e565b5b60200260200101818152505080915050919050565b6136d58473ffffffffffffffffffffffffffffffffffffffff1661388d565b15613885578373ffffffffffffffffffffffffffffffffffffffff1663f23a6e6187878686866040518663ffffffff1660e01b815260040161371b959493929190615bb1565b6020604051808303816000875af192505050801561375757506040513d601f19601f8201168201806040525081019061375491906159a1565b60015b6137fc576137636159db565b806308c379a0036137bf57506137776159fd565b8061378257506137c1565b806040517f08c379a00000000000000000000000000000000000000000000000000000000081526004016137b69190613d5d565b60405180910390fd5b505b6040517f08c379a00000000000000000000000000000000000000000000000000000000081526004016137f390615aff565b60405180910390fd5b63f23a6e6160e01b7bffffffffffffffffffffffffffffffffffffffffffffffffffffffff1916817bffffffffffffffffffffffffffffffffffffffffffffffffffffffff191614613883576040517f08c379a000000000000000000000000000000000000000000000000000000000815260040161387a90615b91565b60405180910390fd5b505b505050505050565b6000808273ffffffffffffffffffffffffffffffffffffffff163b119050919050565b5080546138bc90614af5565b6000825580601f106138ce57506138ed565b601f0160209004906000526020600020908101906138ec91906139cd565b5b50565b82805482825590600052602060002090810192821561392c579160200282015b8281111561392b578251825591602001919060010190613910565b5b50905061393991906139cd565b5090565b82805482825590600052602060002090810192821561397e5760005260206000209182015b8281111561397d578254825591600101919060010190613962565b5b50905061398b91906139cd565b5090565b6040518060800160405280600073ffffffffffffffffffffffffffffffffffffffff1681526020016000815260200160008152602001606081525090565b5b808211156139e65760008160009055506001016139ce565b5090565b600081519050919050565b600082825260208201905092915050565b6000819050602082019050919050565b6000819050919050565b613a2981613a16565b82525050565b6000613a3b8383613a20565b60208301905092915050565b6000602082019050919050565b6000613a5f826139ea565b613a6981856139f5565b9350613a7483613a06565b8060005b83811015613aa5578151613a8c8882613a2f565b9750613a9783613a47565b925050600181019050613a78565b5085935050505092915050565b60006020820190508181036000830152613acc8184613a54565b905092915050565b6000604051905090565b600080fd5b600080fd5b600073ffffffffffffffffffffffffffffffffffffffff82169050919050565b6000613b1382613ae8565b9050919050565b613b2381613b08565b8114613b2e57600080fd5b50565b600081359050613b4081613b1a565b92915050565b613b4f81613a16565b8114613b5a57600080fd5b50565b600081359050613b6c81613b46565b92915050565b60008060408385031215613b8957613b88613ade565b5b6000613b9785828601613b31565b9250506020613ba885828601613b5d565b9150509250929050565b613bbb81613a16565b82525050565b6000602082019050613bd66000830184613bb2565b92915050565b60007fffffffff0000000000000000000000000000000000000000000000000000000082169050919050565b613c1181613bdc565b8114613c1c57600080fd5b50565b600081359050613c2e81613c08565b92915050565b600060208284031215613c4a57613c49613ade565b5b6000613c5884828501613c1f565b91505092915050565b60008115159050919050565b613c7681613c61565b82525050565b6000602082019050613c916000830184613c6d565b92915050565b600060208284031215613cad57613cac613ade565b5b6000613cbb84828501613b5d565b91505092915050565b600081519050919050565b600082825260208201905092915050565b60005b83811015613cfe578082015181840152602081019050613ce3565b83811115613d0d576000848401525b50505050565b6000601f19601f8301169050919050565b6000613d2f82613cc4565b613d398185613ccf565b9350613d49818560208601613ce0565b613d5281613d13565b840191505092915050565b60006020820190508181036000830152613d778184613d24565b905092915050565b6000613d8a82613ae8565b9050919050565b613d9a81613d7f565b82525050565b6000602082019050613db56000830184613d91565b92915050565b600080fd5b7f4e487b7100000000000000000000000000000000000000000000000000000000600052604160045260246000fd5b613df882613d13565b810181811067ffffffffffffffff82111715613e1757613e16613dc0565b5b80604052505050565b6000613e2a613ad4565b9050613e368282613def565b919050565b600067ffffffffffffffff821115613e5657613e55613dc0565b5b602082029050602081019050919050565b600080fd5b6000613e7f613e7a84613e3b565b613e20565b90508083825260208201905060208402830185811115613ea257613ea1613e67565b5b835b81811015613ecb5780613eb78882613b5d565b845260208401935050602081019050613ea4565b5050509392505050565b600082601f830112613eea57613ee9613dbb565b5b8135613efa848260208601613e6c565b91505092915050565b600080fd5b600067ffffffffffffffff821115613f2357613f22613dc0565b5b613f2c82613d13565b9050602081019050919050565b82818337600083830152505050565b6000613f5b613f5684613f08565b613e20565b905082815260208101848484011115613f7757613f76613f03565b5b613f82848285613f39565b509392505050565b600082601f830112613f9f57613f9e613dbb565b5b8135613faf848260208601613f48565b91505092915050565b600080600080600060a08688031215613fd457613fd3613ade565b5b6000613fe288828901613b31565b9550506020613ff388828901613b31565b945050604086013567ffffffffffffffff81111561401457614013613ae3565b5b61402088828901613ed5565b935050606086013567ffffffffffffffff81111561404157614040613ae3565b5b61404d88828901613ed5565b925050608086013567ffffffffffffffff81111561406e5761406d613ae3565b5b61407a88828901613f8a565b9150509295509295909350565b600067ffffffffffffffff8211156140a2576140a1613dc0565b5b602082029050602081019050919050565b60006140c66140c184614087565b613e20565b905080838252602082019050602084028301858111156140e9576140e8613e67565b5b835b8181101561411257806140fe8882613b31565b8452602084019350506020810190506140eb565b5050509392505050565b600082601f83011261413157614130613dbb565b5b81356141418482602086016140b3565b91505092915050565b6000806040838503121561416157614160613ade565b5b600083013567ffffffffffffffff81111561417f5761417e613ae3565b5b61418b8582860161411c565b925050602083013567ffffffffffffffff8111156141ac576141ab613ae3565b5b6141b885828601613ed5565b9150509250929050565b600081519050919050565b600082825260208201905092915050565b6000819050602082019050919050565b600082825260208201905092915050565b600061420a826139ea565b61421481856141ee565b935061421f83613a06565b8060005b838110156142505781516142378882613a2f565b975061424283613a47565b925050600181019050614223565b5085935050505092915050565b600061426983836141ff565b905092915050565b6000602082019050919050565b6000614289826141c2565b61429381856141cd565b9350836020820285016142a5856141de565b8060005b858110156142e157848403895281516142c2858261425d565b94506142cd83614271565b925060208a019950506001810190506142a9565b50829750879550505050505092915050565b6000602082019050818103600083015261430d818461427e565b905092915050565b6000806000806080858703121561432f5761432e613ade565b5b600061433d87828801613b5d565b945050602061434e87828801613b5d565b935050604061435f87828801613b31565b925050606061437087828801613b5d565b91505092959194509250565b6000806000806080858703121561439657614395613ade565b5b60006143a487828801613b5d565b94505060206143b587828801613b5d565b93505060406143c687828801613b31565b92505060606143d787828801613b31565b91505092959194509250565b600067ffffffffffffffff8211156143fe576143fd613dc0565b5b61440782613d13565b9050602081019050919050565b6000614427614422846143e3565b613e20565b90508281526020810184848401111561444357614442613f03565b5b61444e848285613f39565b509392505050565b600082601f83011261446b5761446a613dbb565b5b813561447b848260208601614414565b91505092915050565b60008060008060008060c087890312156144a1576144a0613ade565b5b60006144af89828a01613b5d565b96505060206144c089828a01613b5d565b95505060406144d189828a01613b31565b94505060606144e289828a01613b5d565b93505060806144f389828a01613b5d565b92505060a087013567ffffffffffffffff81111561451457614513613ae3565b5b61452089828a01614456565b9150509295509295509295565b6000806040838503121561454457614543613ade565b5b600061455285828601613b5d565b925050602061456385828601613b5d565b9150509250929050565b60006080820190506145826000830187613d91565b61458f6020830186613bb2565b61459c6040830185613bb2565b81810360608301526145ae8184613d24565b905095945050505050565b60008060008060008060c087890312156145d6576145d5613ade565b5b60006145e489828a01613b5d565b96505060206145f589828a01613b5d565b955050604061460689828a01613b5d565b945050606061461789828a01613b5d565b935050608061462889828a01613b5d565b92505060a087013567ffffffffffffffff81111561464957614648613ae3565b5b61465589828a01614456565b9150509295509295509295565b61466b81613c61565b811461467657600080fd5b50565b60008135905061468881614662565b92915050565b600080604083850312156146a5576146a4613ade565b5b60006146b385828601613b31565b92505060206146c485828601614679565b9150509250929050565b6146d781613bdc565b82525050565b60006020820190506146f260008301846146ce565b92915050565b6000806000806080858703121561471257614711613ade565b5b600061472087828801613b5d565b945050602061473187828801613b5d565b935050604085013567ffffffffffffffff81111561475257614751613ae3565b5b61475e87828801614456565b925050606085013567ffffffffffffffff81111561477f5761477e613ae3565b5b61478b87828801614456565b91505092959194509250565b600080604083850312156147ae576147ad613ade565b5b60006147bc85828601613b31565b92505060206147cd85828601613b31565b9150509250929050565b600080600080600060a086880312156147f3576147f2613ade565b5b600061480188828901613b31565b955050602061481288828901613b31565b945050604061482388828901613b5d565b935050606061483488828901613b5d565b925050608086013567ffffffffffffffff81111561485557614854613ae3565b5b61486188828901613f8a565b9150509295509295909350565b61487781613d7f565b82525050565b600082825260208201905092915050565b600061489982613cc4565b6148a3818561487d565b93506148b3818560208601613ce0565b6148bc81613d13565b840191505092915050565b60006080830160008301516148df600086018261486e565b5060208301516148f26020860182613a20565b5060408301516149056040860182613a20565b506060830151848203606086015261491d828261488e565b9150508091505092915050565b6000602082019050818103600083015261494481846148c7565b905092915050565b60008151905061495b81614662565b92915050565b60006020828403121561497757614976613ade565b5b60006149858482850161494c565b91505092915050565b7f4e487b7100000000000000000000000000000000000000000000000000000000600052603260045260246000fd5b7f4e487b7100000000000000000000000000000000000000000000000000000000600052601160045260246000fd5b60006149f782613a16565b91507fffffffffffffffffffffffffffffffffffffffffffffffffffffffffffffffff8203614a2957614a286149bd565b5b600182019050919050565b7f455243313135353a2061646472657373207a65726f206973206e6f742061207660008201527f616c6964206f776e657200000000000000000000000000000000000000000000602082015250565b6000614a90602a83613ccf565b9150614a9b82614a34565b604082019050919050565b60006020820190508181036000830152614abf81614a83565b9050919050565b7f4e487b7100000000000000000000000000000000000000000000000000000000600052602260045260246000fd5b60006002820490506001821680614b0d57607f821691505b602082108103614b2057614b1f614ac6565b5b50919050565b7f455243313135353a2063616c6c6572206973206e6f7420746f6b656e206f776e60008201527f6572206e6f7220617070726f7665640000000000000000000000000000000000602082015250565b6000614b82602f83613ccf565b9150614b8d82614b26565b604082019050919050565b60006020820190508181036000830152614bb181614b75565b9050919050565b7f455243313135353a206163636f756e747320616e6420696473206c656e67746860008201527f206d69736d617463680000000000000000000000000000000000000000000000602082015250565b6000614c14602983613ccf565b9150614c1f82614bb8565b604082019050919050565b60006020820190508181036000830152614c4381614c07565b9050919050565b6000614c5582613a16565b9150614c6083613a16565b925082821015614c7357614c726149bd565b5b828203905092915050565b6000819050919050565b6000614ca3614c9e614c9984613ae8565b614c7e565b613ae8565b9050919050565b6000614cb582614c88565b9050919050565b6000614cc782614caa565b9050919050565b614cd781614cbc565b82525050565b6000819050919050565b6000614d02614cfd614cf884614cdd565b614c7e565b613a16565b9050919050565b614d1281614ce7565b82525050565b600082825260208201905092915050565b50565b6000614d39600083614d18565b9150614d4482614d29565b600082019050919050565b600060a082019050614d646000830187614cce565b614d716020830186614cce565b614d7e6040830185614d09565b614d8b6060830184613bb2565b8181036080830152614d9c81614d2c565b905095945050505050565b614db081613b08565b82525050565b600060a082019050614dcb6000830187614cce565b614dd86020830186614da7565b614de56040830185613bb2565b614df26060830184613bb2565b8181036080830152614e0381614d2c565b905095945050505050565b600081905092915050565b60008190508160005260206000209050919050565b60008154614e3b81614af5565b614e458186614e0e565b94506001821660008114614e605760018114614e7557614ea8565b60ff1983168652811515820286019350614ea8565b614e7e85614e19565b60005b83811015614ea057815481890152600182019150602081019050614e81565b838801955050505b50505092915050565b6000614ebc82613cc4565b614ec68185614e0e565b9350614ed6818560208601613ce0565b80840191505092915050565b6000614eee8285614e2e565b9150614efa8284614eb1565b91508190509392505050565b6000614f128285614eb1565b9150614f1e8284614e2e565b91508190509392505050565b600060a082019050614f3f6000830187614cce565b614f4c6020830186614da7565b614f596040830185614d09565b614f666060830184613bb2565b8181036080830152614f7781614d2c565b905095945050505050565b600060a082019050614f976000830187614cce565b614fa46020830186614cce565b614fb16040830185613bb2565b614fbe6060830184613bb2565b8181036080830152614fcf81614d2c565b905095945050505050565b7f4c6f776572207468616e20737461727420707269636500000000000000000000600082015250565b6000615010601683613ccf565b915061501b82614fda565b602082019050919050565b6000602082019050818103600083015261503f81615003565b9050919050565b600060a08201905061505b6000830187614da7565b6150686020830186614cce565b6150756040830185614d09565b6150826060830184613bb2565b818103608083015261509381614d2c565b905095945050505050565b7f4c6f776572207468616e2063757272656e744269640000000000000000000000600082015250565b60006150d4601583613ccf565b91506150df8261509e565b602082019050919050565b60006020820190508181036000830152615103816150c7565b9050919050565b60006020601f8301049050919050565b600082821b905092915050565b6000600883026151577fffffffffffffffffffffffffffffffffffffffffffffffffffffffffffffffff8261511a565b615161868361511a565b95508019841693508086168417925050509392505050565b600061519461518f61518a84613a16565b614c7e565b613a16565b9050919050565b6000819050919050565b6151ae83615179565b6151c26151ba8261519b565b848454615127565b825550505050565b600090565b6151d76151ca565b6151e28184846151a5565b505050565b5b81811015615206576151fb6000826151cf565b6001810190506151e8565b5050565b601f82111561524b5761521c81614e19565b6152258461510a565b81016020851015615234578190505b6152486152408561510a565b8301826151e7565b50505b505050565b600082821c905092915050565b600061526e60001984600802615250565b1980831691505092915050565b6000615287838361525d565b9150826002028217905092915050565b6152a082613cc4565b67ffffffffffffffff8111156152b9576152b8613dc0565b5b6152c38254614af5565b6152ce82828561520a565b600060209050601f83116001811461530157600084156152ef578287015190505b6152f9858261527b565b865550615361565b601f19841661530f86614e19565b60005b8281101561533757848901518255600182019150602085019450602081019050615312565b868310156153545784890151615350601f89168261525d565b8355505b6001600288020188555050505b505050505050565b600060408201905061537e6000830185614da7565b61538b6020830184613bb2565b9392505050565b6000815190506153a181613b46565b92915050565b6000602082840312156153bd576153bc613ade565b5b60006153cb84828501615392565b91505092915050565b600060a0820190506153e96000830187614da7565b6153f66020830186614cce565b6154036040830185613bb2565b6154106060830184613bb2565b818103608083015261542181614d2c565b905095945050505050565b7f455243313135353a2069647320616e6420616d6f756e7473206c656e6774682060008201527f6d69736d61746368000000000000000000000000000000000000000000000000602082015250565b6000615488602883613ccf565b91506154938261542c565b604082019050919050565b600060208201905081810360008301526154b78161547b565b9050919050565b7f455243313135353a207472616e7366657220746f20746865207a65726f20616460008201527f6472657373000000000000000000000000000000000000000000000000000000602082015250565b600061551a602583613ccf565b9150615525826154be565b604082019050919050565b600060208201905081810360008301526155498161550d565b9050919050565b7f455243313135353a20696e73756666696369656e742062616c616e636520666f60008201527f72207472616e7366657200000000000000000000000000000000000000000000602082015250565b60006155ac602a83613ccf565b91506155b782615550565b604082019050919050565b600060208201905081810360008301526155db8161559f565b9050919050565b60006155ed82613a16565b91506155f883613a16565b9250827fffffffffffffffffffffffffffffffffffffffffffffffffffffffffffffffff0382111561562d5761562c6149bd565b5b828201905092915050565b600060408201905081810360008301526156528185613a54565b905081810360208301526156668184613a54565b90509392505050565b7f455243313135353a206275726e2066726f6d20746865207a65726f206164647260008201527f6573730000000000000000000000000000000000000000000000000000000000602082015250565b60006156cb602383613ccf565b91506156d68261566f565b604082019050919050565b600060208201905081810360008301526156fa816156be565b9050919050565b7f455243313135353a206275726e20616d6f756e7420657863656564732062616c60008201527f616e636500000000000000000000000000000000000000000000000000000000602082015250565b600061575d602483613ccf565b915061576882615701565b604082019050919050565b6000602082019050818103600083015261578c81615750565b9050919050565b60006040820190506157a86000830185613bb2565b6157b56020830184613bb2565b9392505050565b7f455243313135353a2073657474696e6720617070726f76616c2073746174757360008201527f20666f722073656c660000000000000000000000000000000000000000000000602082015250565b6000615818602983613ccf565b9150615823826157bc565b604082019050919050565b600060208201905081810360008301526158478161580b565b9050919050565b7f455243313135353a206d696e7420746f20746865207a65726f2061646472657360008201527f7300000000000000000000000000000000000000000000000000000000000000602082015250565b60006158aa602183613ccf565b91506158b58261584e565b604082019050919050565b600060208201905081810360008301526158d98161589d565b9050919050565b600081519050919050565b60006158f6826158e0565b6159008185614d18565b9350615910818560208601613ce0565b61591981613d13565b840191505092915050565b600060a0820190506159396000830188614da7565b6159466020830187614da7565b81810360408301526159588186613a54565b9050818103606083015261596c8185613a54565b9050818103608083015261598081846158eb565b90509695505050505050565b60008151905061599b81613c08565b92915050565b6000602082840312156159b7576159b6613ade565b5b60006159c58482850161598c565b91505092915050565b60008160e01c9050919050565b600060033d11156159fa5760046000803e6159f76000516159ce565b90505b90565b600060443d10615a8a57615a0f613ad4565b60043d036004823e80513d602482011167ffffffffffffffff82111715615a37575050615a8a565b808201805167ffffffffffffffff811115615a555750505050615a8a565b80602083010160043d038501811115615a72575050505050615a8a565b615a8182602001850186613def565b82955050505050505b90565b7f455243313135353a207472616e7366657220746f206e6f6e204552433131353560008201527f526563656976657220696d706c656d656e746572000000000000000000000000602082015250565b6000615ae9603483613ccf565b9150615af482615a8d565b604082019050919050565b60006020820190508181036000830152615b1881615adc565b9050919050565b7f455243313135353a204552433131353552656365697665722072656a6563746560008201527f6420746f6b656e73000000000000000000000000000000000000000000000000602082015250565b6000615b7b602883613ccf565b9150615b8682615b1f565b604082019050919050565b60006020820190508181036000830152615baa81615b6e565b9050919050565b600060a082019050615bc66000830188614da7565b615bd36020830187614da7565b615be06040830186613bb2565b615bed6060830185613bb2565b8181036080830152615bff81846158eb565b9050969550505050505056fea2646970667358221220dc38276c1eca983bb79b280ceb2ba24f5d6f1eb81432d15acb23c9e63a1b8d9164736f6c634300080f0033",
  "immutableReferences": {},
  "source": "// SPDX-License-Identifier: MIT\n\npragma solidity >=0.5.16;\n\nimport \"./Supply.sol\";\nimport \"./Item.sol\";\n\ncontract AuctionContract is ERC1155 {\n    /*\n    struct Auction{\n        uint256 auctionId;\n        uint256 itemId;\n        uint256 startTime;\n        uint256 blockDeadline;\n        uint256 startPrice;\n        uint256 stock;\n        string auctionTitle;\n        string shippingFrom;\n        string shipppingTo;\n        address seller;\n        address buyer;\n    }\n    */\n\n    ItemContract internal _itemContract;\n\n    SupplyContract internal _supplyContract;\n\n    address payable internal _governance;\n\n    uint256 internal _auctionId;\n\n    string[2] internal _baseURI = [\"https://ipfs.io/ipfs/\", \"/{id}.json\"];\n\n    mapping(uint256 => Bid[] ) public _auctionBids;\n    mapping(uint256 => string) internal _shippingFrom; // auctionId => shipping address\n    mapping(address => mapping(uint256 => uint256[][])) _aucMap; // map[buyer][itemId] = aucDP[];\n    mapping(uint256 => address) internal _sellerOf;\n\n    function onERC1155Received(address, address, uint256, uint256, bytes memory) public virtual returns (bytes4) {\n        return this.onERC1155Received.selector;\n    }\n\n    function onERC1155BatchReceived(address, address, uint256[] memory, uint256[] memory, bytes memory) public virtual returns (bytes4) {\n        return this.onERC1155BatchReceived.selector;\n    }\n\n\n    constructor(address itemAddress, address supplyAddress, string memory dirCID) ERC1155(string.concat(string.concat(_baseURI[0], dirCID), _baseURI[1]))\n    {\n        _auctionId = 1;\n        _itemContract = ItemContract(itemAddress);\n        _supplyContract = SupplyContract(supplyAddress);\n        _governance = payable(msg.sender);\n    }\n    \n    struct Bid{\n        address payable from;\n        uint256 amount;\n        uint256 timestamp;\n        string shippingTo;\n    }\n\n\n    modifier onlySeller(uint256 auctionId) {\n        require(msg.sender == _sellerOf[auctionId]);\n        _;\n    }\n\n    modifier onlyOwner(uint256 itemId){\n        require(_itemContract.balanceOf(msg.sender, itemId)>0);\n        _;\n    }\n\n    modifier onlyGovernance(){\n        require(payable(msg.sender) == _governance);\n        _;\n    }\n\n\n    function getAuctionId() public view returns(uint256){\n        return _auctionId;\n    }\n\n    function getBidsCount(uint256 auctionId) public view returns(uint256){\n        return _auctionBids[auctionId].length;\n    }\n    \n    function getCurrentBid(uint256 auctionId) public view returns(uint256) {\n        uint256 bidsLength = _auctionBids[auctionId].length;\n\n        if(bidsLength > 0){\n            Bid memory lastBid = _auctionBids[auctionId][bidsLength - 1];\n            return (lastBid.amount);\n        }\n\n        return (uint256(0));\n    }\n\n    function createAuction(uint256 itemId, uint256 stock, string memory shippingFrom, string memory dirCID) public onlyOwner(itemId){\n        string memory newURI = string.concat(string.concat(_baseURI[0], dirCID), _baseURI[1]);\n        _setURI(newURI);\n        _mint(_governance, _auctionId, 1, \"\");\n        //_mint(_governance, _auctionId++, 1, \"\");\n        _itemContract.safeTransferFrom(msg.sender, _governance, itemId, stock, \"\");\n        _sellerOf[_auctionId] = msg.sender;\n        _shippingFrom[_auctionId] = shippingFrom;\n        _auctionId++;\n    }\n\n    function cancelAuction(uint256 auctionId, uint256 itemId, address seller, uint256 stock) public onlySeller(auctionId){\n        uint256 bidsLength = _auctionBids[auctionId].length;\n\n        if(bidsLength > 0){\n            Bid memory lastBid = _auctionBids[auctionId][bidsLength -1];\n            _itemContract.safeTransferFrom(_governance, lastBid.from, 0, lastBid.amount, \"\");\n        }\n        _itemContract.safeTransferFrom(_governance, seller, itemId, stock, \"\");\n        _burn(_governance, auctionId, 1);\n        _sellerOf[auctionId] = address(0);\n        delete _shippingFrom[auctionId];\n    }\n\n    function finalizeAuction(uint256 auctionId, uint256 itemId, address seller, uint256 stock, \n    uint256 blockDeadline, string memory dirCID) public onlySeller(auctionId) {\n        uint256 bidsLength = _auctionBids[auctionId].length;\n        uint256 timeStamp = block.timestamp;\n\n        string memory newURI = string.concat(string.concat(_baseURI[0], dirCID), _baseURI[1]);\n        _setURI(newURI);\n        //address payable aucOwner = ownerDataContract.getOwnerByAucId(auctionId);\n        \n\n        if(timeStamp < blockDeadline){\n            revert();\n        }\n        \n        if(bidsLength == 0) {\n            cancelAuction(auctionId, itemId, seller, stock);\n        }else{\n\n            Bid memory lastBid = _auctionBids[auctionId][bidsLength - 1];\n\n            _setApprovalForAll(lastBid.from, msg.sender, true);\n            _setApprovalForAll(_governance, msg.sender, true);\n\n\n            _itemContract.safeTransferFrom(_governance, msg.sender, 0, lastBid.amount, \"\");\n            _itemContract.safeTransferFrom(_governance, lastBid.from, itemId, stock, \"\");\n            safeTransferFrom(_governance, seller, auctionId, 1, \"\");\n            safeTransferFrom(seller, lastBid.from, auctionId, 1, \"\");\n\n            _setApprovalForAll(lastBid.from, msg.sender, false);\n            _setApprovalForAll(_governance, msg.sender, false);\n            updateMap(auctionId, itemId, seller, lastBid.from);\n            _supplyContract.deliveryPrepareByAuctionId(auctionId);\n        }\n    }\n\n    function bidOnAuction(uint256 auctionId, uint256 amount, uint256 startPrice, uint256 startTime, uint256 blockDeadline, string memory shippingTo) external payable {\n        uint256 timestamp = block.timestamp;\n\n        require(startTime<=timestamp && timestamp <= blockDeadline);\n        \n        uint256 bidsLength = _auctionBids[auctionId].length;\n        uint256 tempAmount = startPrice;\n        Bid memory lastBid;\n        \n        require(tempAmount <= amount, \"Lower than start price\");\n\n        _itemContract.safeTransferFrom(msg.sender, _governance, 0, amount, \"\");\n\n        if(bidsLength > 0){\n            lastBid = _auctionBids[auctionId][bidsLength -1];\n            tempAmount = lastBid.amount;\n\n            require(amount > tempAmount, \"Lower than currentBid\");\n\n            _itemContract.safeTransferFrom(_governance, lastBid.from, 0, lastBid.amount, \"\");\n        }\n        \n        Bid memory newBid;\n        newBid.shippingTo = shippingTo;\n        newBid.from = payable(msg.sender);\n        newBid.amount = amount;\n        newBid.timestamp = timestamp;\n        _auctionBids[auctionId].push(newBid);\n    }\n\n    function updateMap(uint256 auctionId, uint256 itemId, address seller, address buyer) public{\n        uint256 loop = _aucMap[seller][itemId].length;\n        if(loop == 0){\n            uint256[1] memory newRow = [auctionId];\n            _aucMap[buyer][itemId].push(newRow);\n            return;\n        }\n        for(uint256 i=0; i<_aucMap[seller][itemId].length; i++){\n            uint256 mlen = _aucMap[buyer][itemId].length;\n            _aucMap[buyer][itemId].push(_aucMap[seller][itemId][i]);\n            _aucMap[buyer][itemId][mlen].push(auctionId); \n        }\n\n        return;\n    }   \n\n    function getMapOfUser(uint256 itemId) public view returns(uint256[][] memory){\n        return _aucMap[msg.sender][itemId];\n    }\n\n    function getWinningPrice(uint256 auctionId) public view returns(uint256){\n        uint256 len = _auctionBids[auctionId].length;\n        return _auctionBids[auctionId][len-1].amount;\n    } //    \n\n    function getBidderInfo(uint256 auctionId) public view returns(Bid memory){\n        Bid[] memory BidArr = _auctionBids[auctionId];\n        return _auctionBids[auctionId][BidArr.length-1];\n    }\n\n    function setGovernance() public onlyGovernance(){\n        _governance = payable(address(this));\n    }\n\n    function getGovernance() public view returns(address payable){\n        return _governance;\n    }\n\n    function getDeliveryList() public view returns(uint256[] memory){\n        uint256[] memory deliveryList = new uint256[](_auctionId);\n        uint256 listIdx = 0;\n        for(uint256 i=0; i<_auctionId; i++){\n            if(_supplyContract.inDelivery(i)){\n                deliveryList[listIdx] = i;\n                listIdx++;\n            }\n        }\n\n        return deliveryList;\n    }\n\n}\n\n",
  "sourcePath": "/Users/c_rbi/PNU_test-main/back-end/smart_contract/contracts/Auction.sol",
  "compiler": {
    "name": "solc",
    "version": "0.8.15+commit.e14f2714.Emscripten.clang"
  },
  "schemaVersion": "3.4.10",
  "updatedAt": "2022-10-14T16:31:32.512Z",
  "networkType": "ethereum",
  "devdoc": {
    "kind": "dev",
    "methods": {
      "balanceOf(address,uint256)": {
        "details": "See {IERC1155-balanceOf}. Requirements: - `account` cannot be the zero address."
      },
      "balanceOfBatch(address[],uint256[])": {
        "details": "See {IERC1155-balanceOfBatch}. Requirements: - `accounts` and `ids` must have the same length."
      },
      "isApprovedForAll(address,address)": {
        "details": "See {IERC1155-isApprovedForAll}."
      },
      "safeBatchTransferFrom(address,address,uint256[],uint256[],bytes)": {
        "details": "See {IERC1155-safeBatchTransferFrom}."
      },
      "safeTransferFrom(address,address,uint256,uint256,bytes)": {
        "details": "See {IERC1155-safeTransferFrom}."
      },
      "setApprovalForAll(address,bool)": {
        "details": "See {IERC1155-setApprovalForAll}."
      },
      "supportsInterface(bytes4)": {
        "details": "See {IERC165-supportsInterface}."
      },
      "uri(uint256)": {
        "details": "See {IERC1155MetadataURI-uri}. This implementation returns the same URI for *all* token types. It relies on the token type ID substitution mechanism https://eips.ethereum.org/EIPS/eip-1155#metadata[defined in the EIP]. Clients calling this function must replace the `\\{id\\}` substring with the actual token type ID."
      }
    },
    "version": 1
  },
  "userdoc": {
    "kind": "user",
    "methods": {},
    "version": 1
  }
}