{
  "contractName": "AuctionCopyContract",
  "abi": [
    {
      "inputs": [
        {
          "internalType": "address",
          "name": "_itemToken",
          "type": "address"
        },
        {
          "internalType": "address",
          "name": "_supplyContract",
          "type": "address"
        }
      ],
      "stateMutability": "nonpayable",
      "type": "constructor"
    },
    {
      "inputs": [
        {
          "internalType": "uint256",
          "name": "",
          "type": "uint256"
        },
        {
          "internalType": "uint256",
          "name": "",
          "type": "uint256"
        }
      ],
      "name": "auctionBids",
      "outputs": [
        {
          "internalType": "address payable",
          "name": "from",
          "type": "address"
        },
        {
          "internalType": "uint256",
          "name": "amount",
          "type": "uint256"
        },
        {
          "internalType": "string",
          "name": "shippingTo",
          "type": "string"
        }
      ],
      "stateMutability": "view",
      "type": "function"
    },
    {
      "inputs": [
        {
          "internalType": "uint256",
          "name": "",
          "type": "uint256"
        }
      ],
      "name": "auctions",
      "outputs": [
        {
          "internalType": "uint256",
          "name": "auctionId",
          "type": "uint256"
        },
        {
          "internalType": "string",
          "name": "name",
          "type": "string"
        },
        {
          "internalType": "uint256",
          "name": "startTime",
          "type": "uint256"
        },
        {
          "internalType": "uint256",
          "name": "blockDeadline",
          "type": "uint256"
        },
        {
          "internalType": "uint256",
          "name": "startPrice",
          "type": "uint256"
        },
        {
          "internalType": "uint256",
          "name": "amount",
          "type": "uint256"
        },
        {
          "internalType": "bool",
          "name": "active",
          "type": "bool"
        },
        {
          "internalType": "bool",
          "name": "finalized",
          "type": "bool"
        },
        {
          "internalType": "uint256",
          "name": "itemId",
          "type": "uint256"
        }
      ],
      "stateMutability": "view",
      "type": "function"
    },
    {
      "inputs": [],
      "name": "getAllOfAuctions",
      "outputs": [
        {
          "components": [
            {
              "internalType": "uint256",
              "name": "auctionId",
              "type": "uint256"
            },
            {
              "internalType": "string",
              "name": "name",
              "type": "string"
            },
            {
              "internalType": "uint256",
              "name": "startTime",
              "type": "uint256"
            },
            {
              "internalType": "uint256",
              "name": "blockDeadline",
              "type": "uint256"
            },
            {
              "internalType": "uint256",
              "name": "startPrice",
              "type": "uint256"
            },
            {
              "internalType": "uint256",
              "name": "amount",
              "type": "uint256"
            },
            {
              "internalType": "bool",
              "name": "active",
              "type": "bool"
            },
            {
              "internalType": "bool",
              "name": "finalized",
              "type": "bool"
            },
            {
              "internalType": "uint256",
              "name": "itemId",
              "type": "uint256"
            },
            {
              "internalType": "string[2]",
              "name": "shippingAddr",
              "type": "string[2]"
            },
            {
              "internalType": "address payable[2]",
              "name": "traders",
              "type": "address[2]"
            }
          ],
          "internalType": "struct AuctionCopyContract.Auction[]",
          "name": "",
          "type": "tuple[]"
        }
      ],
      "stateMutability": "view",
      "type": "function"
    },
    {
      "inputs": [],
      "name": "getAuctionsLength",
      "outputs": [
        {
          "internalType": "uint256",
          "name": "",
          "type": "uint256"
        }
      ],
      "stateMutability": "view",
      "type": "function"
    },
    {
      "inputs": [
        {
          "internalType": "uint256",
          "name": "_auctionId",
          "type": "uint256"
        }
      ],
      "name": "getItemByAuction",
      "outputs": [
        {
          "internalType": "uint256",
          "name": "",
          "type": "uint256"
        }
      ],
      "stateMutability": "view",
      "type": "function"
    },
    {
      "inputs": [
        {
          "internalType": "uint256",
          "name": "_auctionId",
          "type": "uint256"
        }
      ],
      "name": "getBidsCount",
      "outputs": [
        {
          "internalType": "uint256",
          "name": "",
          "type": "uint256"
        }
      ],
      "stateMutability": "view",
      "type": "function"
    },
    {
      "inputs": [
        {
          "internalType": "address",
          "name": "_user",
          "type": "address"
        }
      ],
      "name": "getOwnedAuctions",
      "outputs": [
        {
          "components": [
            {
              "internalType": "uint256",
              "name": "auctionId",
              "type": "uint256"
            },
            {
              "internalType": "string",
              "name": "name",
              "type": "string"
            },
            {
              "internalType": "uint256",
              "name": "startTime",
              "type": "uint256"
            },
            {
              "internalType": "uint256",
              "name": "blockDeadline",
              "type": "uint256"
            },
            {
              "internalType": "uint256",
              "name": "startPrice",
              "type": "uint256"
            },
            {
              "internalType": "uint256",
              "name": "amount",
              "type": "uint256"
            },
            {
              "internalType": "bool",
              "name": "active",
              "type": "bool"
            },
            {
              "internalType": "bool",
              "name": "finalized",
              "type": "bool"
            },
            {
              "internalType": "uint256",
              "name": "itemId",
              "type": "uint256"
            },
            {
              "internalType": "string[2]",
              "name": "shippingAddr",
              "type": "string[2]"
            },
            {
              "internalType": "address payable[2]",
              "name": "traders",
              "type": "address[2]"
            }
          ],
          "internalType": "struct AuctionCopyContract.Auction[]",
          "name": "",
          "type": "tuple[]"
        }
      ],
      "stateMutability": "view",
      "type": "function"
    },
    {
      "inputs": [
        {
          "internalType": "uint256",
          "name": "_auctionId",
          "type": "uint256"
        }
      ],
      "name": "getCurrentBid",
      "outputs": [
        {
          "internalType": "uint256",
          "name": "",
          "type": "uint256"
        },
        {
          "internalType": "address",
          "name": "",
          "type": "address"
        }
      ],
      "stateMutability": "view",
      "type": "function"
    },
    {
      "inputs": [
        {
          "internalType": "uint256",
          "name": "_auctionId",
          "type": "uint256"
        }
      ],
      "name": "getAuctionById",
      "outputs": [
        {
          "components": [
            {
              "internalType": "uint256",
              "name": "auctionId",
              "type": "uint256"
            },
            {
              "internalType": "string",
              "name": "name",
              "type": "string"
            },
            {
              "internalType": "uint256",
              "name": "startTime",
              "type": "uint256"
            },
            {
              "internalType": "uint256",
              "name": "blockDeadline",
              "type": "uint256"
            },
            {
              "internalType": "uint256",
              "name": "startPrice",
              "type": "uint256"
            },
            {
              "internalType": "uint256",
              "name": "amount",
              "type": "uint256"
            },
            {
              "internalType": "bool",
              "name": "active",
              "type": "bool"
            },
            {
              "internalType": "bool",
              "name": "finalized",
              "type": "bool"
            },
            {
              "internalType": "uint256",
              "name": "itemId",
              "type": "uint256"
            },
            {
              "internalType": "string[2]",
              "name": "shippingAddr",
              "type": "string[2]"
            },
            {
              "internalType": "address payable[2]",
              "name": "traders",
              "type": "address[2]"
            }
          ],
          "internalType": "struct AuctionCopyContract.Auction",
          "name": "",
          "type": "tuple"
        }
      ],
      "stateMutability": "view",
      "type": "function"
    },
    {
      "inputs": [
        {
          "internalType": "uint256",
          "name": "_auctionId",
          "type": "uint256"
        }
      ],
      "name": "getAuctionNameByAuctionId",
      "outputs": [
        {
          "internalType": "string",
          "name": "",
          "type": "string"
        }
      ],
      "stateMutability": "view",
      "type": "function"
    },
    {
      "inputs": [
        {
          "internalType": "uint256",
          "name": "_itemId",
          "type": "uint256"
        },
        {
          "internalType": "string",
          "name": "_auctionTitle",
          "type": "string"
        },
        {
          "internalType": "uint256",
          "name": "_startPrice",
          "type": "uint256"
        },
        {
          "internalType": "uint256",
          "name": "_amount",
          "type": "uint256"
        },
        {
          "internalType": "string",
          "name": "_shippingFrom",
          "type": "string"
        },
        {
          "internalType": "uint256",
          "name": "_startTime",
          "type": "uint256"
        },
        {
          "internalType": "uint256",
          "name": "_blockDeadline",
          "type": "uint256"
        }
      ],
      "name": "createAuction",
      "outputs": [],
      "stateMutability": "nonpayable",
      "type": "function"
    },
    {
      "inputs": [
        {
          "internalType": "uint256",
          "name": "_auctionId",
          "type": "uint256"
        }
      ],
      "name": "cancelAuction",
      "outputs": [],
      "stateMutability": "nonpayable",
      "type": "function"
    },
    {
      "inputs": [
        {
          "internalType": "uint256",
          "name": "_auctionId",
          "type": "uint256"
        }
      ],
      "name": "finalizeAuction",
      "outputs": [
        {
          "internalType": "uint256",
          "name": "",
          "type": "uint256"
        }
      ],
      "stateMutability": "nonpayable",
      "type": "function"
    },
    {
      "inputs": [
        {
          "internalType": "uint256",
          "name": "_auctionId",
          "type": "uint256"
        }
      ],
      "name": "getShippingAddrByAucId",
      "outputs": [
        {
          "internalType": "string[2]",
          "name": "",
          "type": "string[2]"
        }
      ],
      "stateMutability": "view",
      "type": "function"
    },
    {
      "inputs": [
        {
          "internalType": "uint256",
          "name": "_auctionId",
          "type": "uint256"
        },
        {
          "internalType": "string",
          "name": "_to",
          "type": "string"
        },
        {
          "internalType": "uint256",
          "name": "_amount",
          "type": "uint256"
        }
      ],
      "name": "bidOnAuction",
      "outputs": [],
      "stateMutability": "payable",
      "type": "function"
    },
    {
      "inputs": [
        {
          "internalType": "uint256",
          "name": "_auctionId",
          "type": "uint256"
        }
      ],
      "name": "getActiveByAuctionId",
      "outputs": [
        {
          "internalType": "bool",
          "name": "",
          "type": "bool"
        }
      ],
      "stateMutability": "view",
      "type": "function"
    },
    {
      "inputs": [
        {
          "internalType": "uint256",
          "name": "_auctionId",
          "type": "uint256"
        }
      ],
      "name": "getWinningPrice",
      "outputs": [
        {
          "internalType": "uint256",
          "name": "",
          "type": "uint256"
        }
      ],
      "stateMutability": "view",
      "type": "function"
    },
    {
      "inputs": [
        {
          "internalType": "uint256",
          "name": "_itemId",
          "type": "uint256"
        }
      ],
      "name": "getPathByItemId",
      "outputs": [
        {
          "internalType": "string[][]",
          "name": "",
          "type": "string[][]"
        }
      ],
      "stateMutability": "view",
      "type": "function"
    }
  ],
  "bytecode": "0x60806040523480156200001157600080fd5b5060405162004d5b38038062004d5b83398181016040528101906200003791906200012a565b816000806101000a81548173ffffffffffffffffffffffffffffffffffffffff021916908373ffffffffffffffffffffffffffffffffffffffff16021790555080600160006101000a81548173ffffffffffffffffffffffffffffffffffffffff021916908373ffffffffffffffffffffffffffffffffffffffff160217905550505062000171565b600080fd5b600073ffffffffffffffffffffffffffffffffffffffff82169050919050565b6000620000f282620000c5565b9050919050565b6200010481620000e5565b81146200011057600080fd5b50565b6000815190506200012481620000f9565b92915050565b60008060408385031215620001445762000143620000c0565b5b6000620001548582860162000113565b9250506020620001678582860162000113565b9150509250929050565b614bda80620001816000396000f3fe6080604052600436106101095760003560e01c8063ad5b812a11610095578063e147e11b11610064578063e147e11b146103c5578063e808386314610402578063ea9c6cf11461043f578063ee3ab9e31461047c578063fa96fec4146104b957610109565b8063ad5b812a146102e2578063c6dc72021461031f578063da4e364f1461035c578063dbe350071461039a57610109565b8063487ec054116100dc578063487ec054146101cd5780634c773f3e146101f8578063571a26a0146102355780635f93de491461027a57806396b5a755146102b957610109565b806318111ada1461010e5780631e9d97481461014b5780633a8c7e6c146101675780634008f9c014610190575b600080fd5b34801561011a57600080fd5b5061013560048036038101906101309190613713565b6104f6565b6040516101429190613a8c565b60405180910390f35b61016560048036038101906101609190613be3565b61077f565b005b34801561017357600080fd5b5061018e60048036038101906101899190613c52565b610ea7565b005b34801561019c57600080fd5b506101b760048036038101906101b29190613713565b6111bc565b6040516101c49190613d3b565b60405180910390f35b3480156101d957600080fd5b506101e26111dc565b6040516101ef9190613f0e565b60405180910390f35b34801561020457600080fd5b5061021f600480360381019061021a9190613f6e565b611482565b60405161022c9190613f0e565b60405180910390f35b34801561024157600080fd5b5061025c60048036038101906102579190613713565b6117df565b60405161027199989796959493929190613ff4565b60405180910390f35b34801561028657600080fd5b506102a1600480360381019061029c9190614088565b6118df565b6040516102b0939291906140d7565b60405180910390f35b3480156102c557600080fd5b506102e060048036038101906102db9190613713565b6119ce565b005b3480156102ee57600080fd5b5061030960048036038101906103049190613713565b611fd9565b6040516103169190614115565b60405180910390f35b34801561032b57600080fd5b5061034660048036038101906103419190613713565b612090565b60405161035391906142a7565b60405180910390f35b34801561036857600080fd5b50610383600480360381019061037e9190613713565b612200565b6040516103919291906142d8565b60405180910390f35b3480156103a657600080fd5b506103af61238a565b6040516103bc9190613d3b565b60405180910390f35b3480156103d157600080fd5b506103ec60048036038101906103e79190613713565b612397565b6040516103f99190614381565b60405180910390f35b34801561040e57600080fd5b5061042960048036038101906104249190613713565b612489565b6040516104369190613d3b565b60405180910390f35b34801561044b57600080fd5b5061046660048036038101906104619190613713565b612b2c565b60405161047391906143a3565b60405180910390f35b34801561048857600080fd5b506104a3600480360381019061049e9190613713565b612b68565b6040516104b09190613d3b565b60405180910390f35b3480156104c557600080fd5b506104e060048036038101906104db9190613713565b612b97565b6040516104ed9190613d3b565b60405180910390f35b6104fe613397565b600060038381548110610514576105136143be565b5b90600052602060002090600c020160405180610160016040529081600082015481526020016001820180546105489061441c565b80601f01602080910402602001604051908101604052809291908181526020018280546105749061441c565b80156105c15780601f10610596576101008083540402835291602001916105c1565b820191906000526020600020905b8154815290600101906020018083116105a457829003601f168201915b50505050508152602001600282015481526020016003820154815260200160048201548152602001600582015481526020016006820160009054906101000a900460ff161515151581526020016006820160019054906101000a900460ff161515151581526020016007820154815260200160088201600280602002604051908101604052809291906000905b828210156106f15783820180546106649061441c565b80601f01602080910402602001604051908101604052809291908181526020018280546106909061441c565b80156106dd5780601f106106b2576101008083540402835291602001916106dd565b820191906000526020600020905b8154815290600101906020018083116106c057829003601f168201915b50505050508152602001906001019061064e565b505050508152602001600a820160028060200260405190810160405280929190826002801561076b576020028201915b8160009054906101000a900473ffffffffffffffffffffffffffffffffffffffff1673ffffffffffffffffffffffffffffffffffffffff1681526020019060010190808311610721575b505050505081525050905080915050919050565b600042905060006003858154811061079a576107996143be565b5b90600052602060002090600c020160405180610160016040529081600082015481526020016001820180546107ce9061441c565b80601f01602080910402602001604051908101604052809291908181526020018280546107fa9061441c565b80156108475780601f1061081c57610100808354040283529160200191610847565b820191906000526020600020905b81548152906001019060200180831161082a57829003601f168201915b50505050508152602001600282015481526020016003820154815260200160048201548152602001600582015481526020016006820160009054906101000a900460ff161515151581526020016006820160019054906101000a900460ff161515151581526020016007820154815260200160088201600280602002604051908101604052809291906000905b828210156109775783820180546108ea9061441c565b80601f01602080910402602001604051908101604052809291908181526020018280546109169061441c565b80156109635780601f1061093857610100808354040283529160200191610963565b820191906000526020600020905b81548152906001019060200180831161094657829003601f168201915b5050505050815260200190600101906108d4565b505050508152602001600a82016002806020026040519081016040528092919082600280156109f1576020028201915b8160009054906101000a900473ffffffffffffffffffffffffffffffffffffffff1673ffffffffffffffffffffffffffffffffffffffff16815260200190600101908083116109a7575b505050505081525050905060008160400151905060008260600151905080841180610a1b57508184105b15610a2557600080fd5b600060046000898152602001908152602001600020805490509050600084608001519050610a51613401565b81881015610a5e57600080fd5b818811610aa0576040517f08c379a0000000000000000000000000000000000000000000000000000000008152600401610a9790614499565b60405180910390fd5b6000831115610da157600460008b8152602001908152602001600020600184610ac991906144e8565b81548110610ada57610ad96143be565b5b90600052602060002090600302016040518060600160405290816000820160009054906101000a900473ffffffffffffffffffffffffffffffffffffffff1673ffffffffffffffffffffffffffffffffffffffff1673ffffffffffffffffffffffffffffffffffffffff16815260200160018201548152602001600282018054610b639061441c565b80601f0160208091040260200160405190810160405280929190818152602001828054610b8f9061441c565b8015610bdc5780601f10610bb157610100808354040283529160200191610bdc565b820191906000526020600020905b815481529060010190602001808311610bbf57829003601f168201915b505050505081525050905080602001519150818811610c30576040517f08c379a0000000000000000000000000000000000000000000000000000000008152600401610c2790614568565b60405180910390fd5b60008054906101000a900473ffffffffffffffffffffffffffffffffffffffff1673ffffffffffffffffffffffffffffffffffffffff1663f242432a33600260009054906101000a900473ffffffffffffffffffffffffffffffffffffffff1660008c6040518563ffffffff1660e01b8152600401610cb29493929190614659565b600060405180830381600087803b158015610ccc57600080fd5b505af1158015610ce0573d6000803e3d6000fd5b5050505060008054906101000a900473ffffffffffffffffffffffffffffffffffffffff1673ffffffffffffffffffffffffffffffffffffffff1663f242432a600260009054906101000a900473ffffffffffffffffffffffffffffffffffffffff168360000151600085602001516040518563ffffffff1660e01b8152600401610d6e94939291906146b1565b600060405180830381600087803b158015610d8857600080fd5b505af1158015610d9c573d6000803e3d6000fd5b505050505b610da9613401565b33816000019073ffffffffffffffffffffffffffffffffffffffff16908173ffffffffffffffffffffffffffffffffffffffff168152505088816020018181525050898160400181905250600460008c815260200190815260200160002081908060018154018082558091505060019003906000526020600020906003020160009091909190915060008201518160000160006101000a81548173ffffffffffffffffffffffffffffffffffffffff021916908373ffffffffffffffffffffffffffffffffffffffff160217905550602082015181600101556040820151816002019081610e9791906148ab565b5050505050505050505050505050565b610eaf613397565b60008054906101000a900473ffffffffffffffffffffffffffffffffffffffff1673ffffffffffffffffffffffffffffffffffffffff1662fdd58e338a6040518363ffffffff1660e01b8152600401610f0992919061497d565b602060405180830381865afa158015610f26573d6000803e3d6000fd5b505050506040513d601f19601f82011682018060405250810190610f4a91906149bb565b851115610f8c576040517f08c379a0000000000000000000000000000000000000000000000000000000008152600401610f8390614a34565b60405180910390fd5b60008054906101000a900473ffffffffffffffffffffffffffffffffffffffff1673ffffffffffffffffffffffffffffffffffffffff1663f242432a33600260009054906101000a900473ffffffffffffffffffffffffffffffffffffffff168b896040518563ffffffff1660e01b815260040161100d9493929190614a54565b600060405180830381600087803b15801561102757600080fd5b505af115801561103b573d6000803e3d6000fd5b50505050878161010001818152505086816020018190525085816080018181525050848160a0018181525050828160400181815250508181606001818152505060018160c001901515908115158152505060008160e0019015159081151581525050838161012001516000600281106110b7576110b66143be565b5b602002018190525060038190806001815401808255809150506001900390600052602060002090600c020160009091909190915060008201518160000155602082015181600101908161110a91906148ab565b5060408201518160020155606082015181600301556080820151816004015560a0820151816005015560c08201518160060160006101000a81548160ff02191690831515021790555060e08201518160060160016101000a81548160ff021916908315150217905550610100820151816007015561012082015181600801906002611196929190613438565b5061014082015181600a019060026111af929190613484565b5050505050505050505050565b600060046000838152602001908152602001600020805490509050919050565b60606003805480602002602001604051908101604052809291908181526020016000905b8282101561147957838290600052602060002090600c0201604051806101600160405290816000820154815260200160018201805461123e9061441c565b80601f016020809104026020016040519081016040528092919081815260200182805461126a9061441c565b80156112b75780601f1061128c576101008083540402835291602001916112b7565b820191906000526020600020905b81548152906001019060200180831161129a57829003601f168201915b50505050508152602001600282015481526020016003820154815260200160048201548152602001600582015481526020016006820160009054906101000a900460ff161515151581526020016006820160019054906101000a900460ff161515151581526020016007820154815260200160088201600280602002604051908101604052809291906000905b828210156113e757838201805461135a9061441c565b80601f01602080910402602001604051908101604052809291908181526020018280546113869061441c565b80156113d35780601f106113a8576101008083540402835291602001916113d3565b820191906000526020600020905b8154815290600101906020018083116113b657829003601f168201915b505050505081526020019060010190611344565b505050508152602001600a8201600280602002604051908101604052809291908260028015611461576020028201915b8160009054906101000a900473ffffffffffffffffffffffffffffffffffffffff1673ffffffffffffffffffffffffffffffffffffffff1681526020019060010190808311611417575b50505050508152505081526020019060010190611200565b50505050905090565b6060806000805b6003805490508110156117d4578473ffffffffffffffffffffffffffffffffffffffff16600382815481106114c1576114c06143be565b5b90600052602060002090600c0201600a016000600281106114e5576114e46143be565b5b0160009054906101000a900473ffffffffffffffffffffffffffffffffffffffff1673ffffffffffffffffffffffffffffffffffffffff16036117c15760038181548110611536576115356143be565b5b90600052602060002090600c0201604051806101600160405290816000820154815260200160018201805461156a9061441c565b80601f01602080910402602001604051908101604052809291908181526020018280546115969061441c565b80156115e35780601f106115b8576101008083540402835291602001916115e3565b820191906000526020600020905b8154815290600101906020018083116115c657829003601f168201915b50505050508152602001600282015481526020016003820154815260200160048201548152602001600582015481526020016006820160009054906101000a900460ff161515151581526020016006820160019054906101000a900460ff161515151581526020016007820154815260200160088201600280602002604051908101604052809291906000905b828210156117135783820180546116869061441c565b80601f01602080910402602001604051908101604052809291908181526020018280546116b29061441c565b80156116ff5780601f106116d4576101008083540402835291602001916116ff565b820191906000526020600020905b8154815290600101906020018083116116e257829003601f168201915b505050505081526020019060010190611670565b505050508152602001600a820160028060200260405190810160405280929190826002801561178d576020028201915b8160009054906101000a900473ffffffffffffffffffffffffffffffffffffffff1673ffffffffffffffffffffffffffffffffffffffff1681526020019060010190808311611743575b5050505050815250508383806117a290614aac565b9450815181106117b5576117b46143be565b5b60200260200101819052505b80806117cc90614aac565b915050611489565b508192505050919050565b600381815481106117ef57600080fd5b90600052602060002090600c02016000915090508060000154908060010180546118189061441c565b80601f01602080910402602001604051908101604052809291908181526020018280546118449061441c565b80156118915780601f1061186657610100808354040283529160200191611891565b820191906000526020600020905b81548152906001019060200180831161187457829003601f168201915b5050505050908060020154908060030154908060040154908060050154908060060160009054906101000a900460ff16908060060160019054906101000a900460ff16908060070154905089565b600460205281600052604060002081815481106118fb57600080fd5b9060005260206000209060030201600091509150508060000160009054906101000a900473ffffffffffffffffffffffffffffffffffffffff169080600101549080600201805461194b9061441c565b80601f01602080910402602001604051908101604052809291908181526020018280546119779061441c565b80156119c45780601f10611999576101008083540402835291602001916119c4565b820191906000526020600020905b8154815290600101906020018083116119a757829003601f168201915b5050505050905083565b803373ffffffffffffffffffffffffffffffffffffffff16600382815481106119fa576119f96143be565b5b90600052602060002090600c0201600a01600060028110611a1e57611a1d6143be565b5b0160009054906101000a900473ffffffffffffffffffffffffffffffffffffffff1673ffffffffffffffffffffffffffffffffffffffff1614611a6057600080fd5b600060038381548110611a7657611a756143be565b5b90600052602060002090600c02016040518061016001604052908160008201548152602001600182018054611aaa9061441c565b80601f0160208091040260200160405190810160405280929190818152602001828054611ad69061441c565b8015611b235780601f10611af857610100808354040283529160200191611b23565b820191906000526020600020905b815481529060010190602001808311611b0657829003601f168201915b50505050508152602001600282015481526020016003820154815260200160048201548152602001600582015481526020016006820160009054906101000a900460ff161515151581526020016006820160019054906101000a900460ff161515151581526020016007820154815260200160088201600280602002604051908101604052809291906000905b82821015611c53578382018054611bc69061441c565b80601f0160208091040260200160405190810160405280929190818152602001828054611bf29061441c565b8015611c3f5780601f10611c1457610100808354040283529160200191611c3f565b820191906000526020600020905b815481529060010190602001808311611c2257829003601f168201915b505050505081526020019060010190611bb0565b505050508152602001600a8201600280602002604051908101604052809291908260028015611ccd576020028201915b8160009054906101000a900473ffffffffffffffffffffffffffffffffffffffff1673ffffffffffffffffffffffffffffffffffffffff1681526020019060010190808311611c83575b50505050508152505090506000600460008581526020019081526020016000208054905090506000811115611fd357600060046000868152602001908152602001600020600183611d1e91906144e8565b81548110611d2f57611d2e6143be565b5b90600052602060002090600302016040518060600160405290816000820160009054906101000a900473ffffffffffffffffffffffffffffffffffffffff1673ffffffffffffffffffffffffffffffffffffffff1673ffffffffffffffffffffffffffffffffffffffff16815260200160018201548152602001600282018054611db89061441c565b80601f0160208091040260200160405190810160405280929190818152602001828054611de49061441c565b8015611e315780601f10611e0657610100808354040283529160200191611e31565b820191906000526020600020905b815481529060010190602001808311611e1457829003601f168201915b505050505081525050905060008054906101000a900473ffffffffffffffffffffffffffffffffffffffff1673ffffffffffffffffffffffffffffffffffffffff1663f242432a600260009054906101000a900473ffffffffffffffffffffffffffffffffffffffff168360000151600085602001516040518563ffffffff1660e01b8152600401611ec694939291906146b1565b600060405180830381600087803b158015611ee057600080fd5b505af1158015611ef4573d6000803e3d6000fd5b5050505060008054906101000a900473ffffffffffffffffffffffffffffffffffffffff1673ffffffffffffffffffffffffffffffffffffffff1663f242432a600260009054906101000a900473ffffffffffffffffffffffffffffffffffffffff16856101400151600060028110611f7057611f6f6143be565b5b602002015186610100015185602001516040518563ffffffff1660e01b8152600401611f9f9493929190614af4565b600060405180830381600087803b158015611fb957600080fd5b505af1158015611fcd573d6000803e3d6000fd5b50505050505b50505050565b606060038281548110611fef57611fee6143be565b5b90600052602060002090600c0201600101805461200b9061441c565b80601f01602080910402602001604051908101604052809291908181526020018280546120379061441c565b80156120845780601f1061205957610100808354040283529160200191612084565b820191906000526020600020905b81548152906001019060200180831161206757829003601f168201915b50505050509050919050565b6060600560003373ffffffffffffffffffffffffffffffffffffffff1673ffffffffffffffffffffffffffffffffffffffff1681526020019081526020016000206000838152602001908152602001600020805480602002602001604051908101604052809291908181526020016000905b828210156121f557838290600052602060002001805480602002602001604051908101604052809291908181526020016000905b828210156121e25783829060005260206000200180546121559061441c565b80601f01602080910402602001604051908101604052809291908181526020018280546121819061441c565b80156121ce5780601f106121a3576101008083540402835291602001916121ce565b820191906000526020600020905b8154815290600101906020018083116121b157829003601f168201915b505050505081526020019060010190612136565b5050505081526020019060010190612102565b505050509050919050565b600080600060046000858152602001908152602001600020805490509050600081111561237c5760006004600086815260200190815260200160002060018361224991906144e8565b8154811061225a576122596143be565b5b90600052602060002090600302016040518060600160405290816000820160009054906101000a900473ffffffffffffffffffffffffffffffffffffffff1673ffffffffffffffffffffffffffffffffffffffff1673ffffffffffffffffffffffffffffffffffffffff168152602001600182015481526020016002820180546122e39061441c565b80601f016020809104026020016040519081016040528092919081815260200182805461230f9061441c565b801561235c5780601f106123315761010080835404028352916020019161235c565b820191906000526020600020905b81548152906001019060200180831161233f57829003601f168201915b505050505081525050905080602001518160000151935093505050612385565b60008092509250505b915091565b6000600380549050905090565b61239f613501565b600382815481106123b3576123b26143be565b5b90600052602060002090600c0201600801600280602002604051908101604052809291906000905b8282101561247e5783820180546123f19061441c565b80601f016020809104026020016040519081016040528092919081815260200182805461241d9061441c565b801561246a5780601f1061243f5761010080835404028352916020019161246a565b820191906000526020600020905b81548152906001019060200180831161244d57829003601f168201915b5050505050815260200190600101906123db565b505050509050919050565b6000813373ffffffffffffffffffffffffffffffffffffffff16600382815481106124b7576124b66143be565b5b90600052602060002090600c0201600a016000600281106124db576124da6143be565b5b0160009054906101000a900473ffffffffffffffffffffffffffffffffffffffff1673ffffffffffffffffffffffffffffffffffffffff161461251d57600080fd5b600060038481548110612533576125326143be565b5b90600052602060002090600c020160405180610160016040529081600082015481526020016001820180546125679061441c565b80601f01602080910402602001604051908101604052809291908181526020018280546125939061441c565b80156125e05780601f106125b5576101008083540402835291602001916125e0565b820191906000526020600020905b8154815290600101906020018083116125c357829003601f168201915b50505050508152602001600282015481526020016003820154815260200160048201548152602001600582015481526020016006820160009054906101000a900460ff161515151581526020016006820160019054906101000a900460ff161515151581526020016007820154815260200160088201600280602002604051908101604052809291906000905b828210156127105783820180546126839061441c565b80601f01602080910402602001604051908101604052809291908181526020018280546126af9061441c565b80156126fc5780601f106126d1576101008083540402835291602001916126fc565b820191906000526020600020905b8154815290600101906020018083116126df57829003601f168201915b50505050508152602001906001019061266d565b505050508152602001600a820160028060200260405190810160405280929190826002801561278a576020028201915b8160009054906101000a900473ffffffffffffffffffffffffffffffffffffffff1673ffffffffffffffffffffffffffffffffffffffff1681526020019060010190808311612740575b5050505050815250509050600060046000868152602001908152602001600020805490509050600042905082606001518110156127c657600080fd5b600082036127dc576127d7866119ce565b612ae1565b6000600460008881526020019081526020016000206001846127fe91906144e8565b8154811061280f5761280e6143be565b5b90600052602060002090600302016040518060600160405290816000820160009054906101000a900473ffffffffffffffffffffffffffffffffffffffff1673ffffffffffffffffffffffffffffffffffffffff1673ffffffffffffffffffffffffffffffffffffffff168152602001600182015481526020016002820180546128989061441c565b80601f01602080910402602001604051908101604052809291908181526020018280546128c49061441c565b80156129115780601f106128e657610100808354040283529160200191612911565b820191906000526020600020905b8154815290600101906020018083116128f457829003601f168201915b505050505081525050905060008054906101000a900473ffffffffffffffffffffffffffffffffffffffff1673ffffffffffffffffffffffffffffffffffffffff1663f242432a600260009054906101000a900473ffffffffffffffffffffffffffffffffffffffff1633600085602001516040518563ffffffff1660e01b81526004016129a29493929190614b4c565b600060405180830381600087803b1580156129bc57600080fd5b505af11580156129d0573d6000803e3d6000fd5b5050505060008054906101000a900473ffffffffffffffffffffffffffffffffffffffff1673ffffffffffffffffffffffffffffffffffffffff1663f242432a3383600001518761010001518860a001516040518563ffffffff1660e01b8152600401612a409493929190614a54565b600060405180830381600087803b158015612a5a57600080fd5b505af1158015612a6e573d6000803e3d6000fd5b505050508060400151846101200151600160028110612a9057612a8f6143be565b5b6020020181905250600160038881548110612aae57612aad6143be565b5b90600052602060002090600c020160060160016101000a81548160ff021916908315150217905550612adf87612bfe565b505b600060038781548110612af757612af66143be565b5b90600052602060002090600c020160060160006101000a81548160ff0219169083151502179055506000945050505050919050565b600060038281548110612b4257612b416143be565b5b90600052602060002090600c020160060160009054906101000a900460ff169050919050565b600060038281548110612b7e57612b7d6143be565b5b90600052602060002090600c0201600701549050919050565b6000806004600084815260200190815260200160002080549050905060046000848152602001908152602001600020600182612bd391906144e8565b81548110612be457612be36143be565b5b906000526020600020906003020160010154915050919050565b600060038281548110612c1457612c136143be565b5b90600052602060002090600c02016040518061016001604052908160008201548152602001600182018054612c489061441c565b80601f0160208091040260200160405190810160405280929190818152602001828054612c749061441c565b8015612cc15780601f10612c9657610100808354040283529160200191612cc1565b820191906000526020600020905b815481529060010190602001808311612ca457829003601f168201915b50505050508152602001600282015481526020016003820154815260200160048201548152602001600582015481526020016006820160009054906101000a900460ff161515151581526020016006820160019054906101000a900460ff161515151581526020016007820154815260200160088201600280602002604051908101604052809291906000905b82821015612df1578382018054612d649061441c565b80601f0160208091040260200160405190810160405280929190818152602001828054612d909061441c565b8015612ddd5780601f10612db257610100808354040283529160200191612ddd565b820191906000526020600020905b815481529060010190602001808311612dc057829003601f168201915b505050505081526020019060010190612d4e565b505050508152602001600a8201600280602002604051908101604052809291908260028015612e6b576020028201915b8160009054906101000a900473ffffffffffffffffffffffffffffffffffffffff1673ffffffffffffffffffffffffffffffffffffffff1681526020019060010190808311612e21575b5050505050815250509050600081610100015190506060600060056000856101400151600060028110612ea157612ea06143be565b5b602002015173ffffffffffffffffffffffffffffffffffffffff1673ffffffffffffffffffffffffffffffffffffffff1681526020019081526020016000206000848152602001908152602001600020805480602002602001604051908101604052809291908181526020016000905b8282101561300457838290600052602060002001805480602002602001604051908101604052809291908181526020016000905b82821015612ff1578382906000526020600020018054612f649061441c565b80601f0160208091040260200160405190810160405280929190818152602001828054612f909061441c565b8015612fdd5780601f10612fb257610100808354040283529160200191612fdd565b820191906000526020600020905b815481529060010190602001808311612fc057829003601f168201915b505050505081526020019060010190612f45565b5050505081526020019060010190612f11565b505050509050600060056000866101400151600160028110613029576130286143be565b5b602002015173ffffffffffffffffffffffffffffffffffffffff1673ffffffffffffffffffffffffffffffffffffffff1681526020019081526020016000206000858152602001908152602001600020805480602002602001604051908101604052809291908181526020016000905b8282101561318c57838290600052602060002001805480602002602001604051908101604052809291908181526020016000905b828210156131795783829060005260206000200180546130ec9061441c565b80601f01602080910402602001604051908101604052809291908181526020018280546131189061441c565b80156131655780601f1061313a57610100808354040283529160200191613165565b820191906000526020600020905b81548152906001019060200180831161314857829003601f168201915b5050505050815260200190600101906130cd565b5050505081526020019060010190613099565b5050505090506000825103613236578461012001516000600281106131b4576131b36143be565b5b6020020151836000815181106131cd576131cc6143be565b5b60200260200101819052508461012001516001600281106131f1576131f06143be565b5b60200201518360018151811061320a576132096143be565b5b6020026020010181905250828182518151811061322a576132296143be565b5b60200260200101819052505b60005b825181101561330c57828181518110613255576132546143be565b5b60200260200101519350856101200151600060028110613278576132776143be565b5b602002015184855181518110613291576132906143be565b5b60200260200101819052508561012001516000600281106132b5576132b46143be565b5b6020020151848551815181106132ce576132cd6143be565b5b602002602001018190525083828351815181106132ee576132ed6143be565b5b6020026020010181905250808061330490614aac565b915050613239565b50806005600087610140015160016002811061332b5761332a6143be565b5b602002015173ffffffffffffffffffffffffffffffffffffffff1673ffffffffffffffffffffffffffffffffffffffff1681526020019081526020016000206000868152602001908152602001600020908051906020019061338e929190613528565b50505050505050565b604051806101600160405280600081526020016060815260200160008152602001600081526020016000815260200160008152602001600015158152602001600015158152602001600081526020016133ee613501565b81526020016133fb613588565b81525090565b6040518060600160405280600073ffffffffffffffffffffffffffffffffffffffff16815260200160008152602001606081525090565b8260028101928215613473579160200282015b8281111561347257825182908161346291906148ab565b509160200191906001019061344b565b5b50905061348091906135aa565b5090565b82600281019282156134f0579160200282015b828111156134ef5782518260006101000a81548173ffffffffffffffffffffffffffffffffffffffff021916908373ffffffffffffffffffffffffffffffffffffffff16021790555091602001919060010190613497565b5b5090506134fd91906135ce565b5090565b60405180604001604052806002905b60608152602001906001900390816135105790505090565b828054828255906000526020600020908101928215613577579160200282015b828111156135765782518290805190602001906135669291906135eb565b5091602001919060010190613548565b5b5090506135849190613644565b5090565b6040518060400160405280600290602082028036833780820191505090505090565b5b808211156135ca57600081816135c19190613668565b506001016135ab565b5090565b5b808211156135e75760008160009055506001016135cf565b5090565b828054828255906000526020600020908101928215613633579160200282015b8281111561363257825182908161362291906148ab565b509160200191906001019061360b565b5b50905061364091906135aa565b5090565b5b80821115613664576000818161365b91906136a8565b50600101613645565b5090565b5080546136749061441c565b6000825580601f1061368657506136a5565b601f0160209004906000526020600020908101906136a491906135ce565b5b50565b50805460008255906000526020600020908101906136c691906135aa565b50565b6000604051905090565b600080fd5b600080fd5b6000819050919050565b6136f0816136dd565b81146136fb57600080fd5b50565b60008135905061370d816136e7565b92915050565b600060208284031215613729576137286136d3565b5b6000613737848285016136fe565b91505092915050565b613749816136dd565b82525050565b600081519050919050565b600082825260208201905092915050565b60005b8381101561378957808201518184015260208101905061376e565b83811115613798576000848401525b50505050565b6000601f19601f8301169050919050565b60006137ba8261374f565b6137c4818561375a565b93506137d481856020860161376b565b6137dd8161379e565b840191505092915050565b60008115159050919050565b6137fd816137e8565b82525050565b600060029050919050565b600081905092915050565b6000819050919050565b600061382f83836137af565b905092915050565b6000602082019050919050565b600061384f82613803565b613859818561380e565b93508360208202850161386b85613819565b8060005b858110156138a757848403895281516138888582613823565b945061389383613837565b925060208a0199505060018101905061386f565b50829750879550505050505092915050565b600060029050919050565b600081905092915050565b6000819050919050565b600073ffffffffffffffffffffffffffffffffffffffff82169050919050565b6000613904826138d9565b9050919050565b613914816138f9565b82525050565b6000613926838361390b565b60208301905092915050565b6000602082019050919050565b613948816138b9565b61395281846138c4565b925061395d826138cf565b8060005b8381101561398e578151613975878261391a565b965061398083613932565b925050600181019050613961565b505050505050565b6000610180830160008301516139af6000860182613740565b50602083015184820360208601526139c782826137af565b91505060408301516139dc6040860182613740565b5060608301516139ef6060860182613740565b506080830151613a026080860182613740565b5060a0830151613a1560a0860182613740565b5060c0830151613a2860c08601826137f4565b5060e0830151613a3b60e08601826137f4565b50610100830151613a50610100860182613740565b50610120830151848203610120860152613a6a8282613844565b915050610140830151613a8161014086018261393f565b508091505092915050565b60006020820190508181036000830152613aa68184613996565b905092915050565b600080fd5b600080fd5b7f4e487b7100000000000000000000000000000000000000000000000000000000600052604160045260246000fd5b613af08261379e565b810181811067ffffffffffffffff82111715613b0f57613b0e613ab8565b5b80604052505050565b6000613b226136c9565b9050613b2e8282613ae7565b919050565b600067ffffffffffffffff821115613b4e57613b4d613ab8565b5b613b578261379e565b9050602081019050919050565b82818337600083830152505050565b6000613b86613b8184613b33565b613b18565b905082815260208101848484011115613ba257613ba1613ab3565b5b613bad848285613b64565b509392505050565b600082601f830112613bca57613bc9613aae565b5b8135613bda848260208601613b73565b91505092915050565b600080600060608486031215613bfc57613bfb6136d3565b5b6000613c0a868287016136fe565b935050602084013567ffffffffffffffff811115613c2b57613c2a6136d8565b5b613c3786828701613bb5565b9250506040613c48868287016136fe565b9150509250925092565b600080600080600080600060e0888a031215613c7157613c706136d3565b5b6000613c7f8a828b016136fe565b975050602088013567ffffffffffffffff811115613ca057613c9f6136d8565b5b613cac8a828b01613bb5565b9650506040613cbd8a828b016136fe565b9550506060613cce8a828b016136fe565b945050608088013567ffffffffffffffff811115613cef57613cee6136d8565b5b613cfb8a828b01613bb5565b93505060a0613d0c8a828b016136fe565b92505060c0613d1d8a828b016136fe565b91505092959891949750929550565b613d35816136dd565b82525050565b6000602082019050613d506000830184613d2c565b92915050565b600081519050919050565b600082825260208201905092915050565b6000819050602082019050919050565b600061018083016000830151613d9b6000860182613740565b5060208301518482036020860152613db382826137af565b9150506040830151613dc86040860182613740565b506060830151613ddb6060860182613740565b506080830151613dee6080860182613740565b5060a0830151613e0160a0860182613740565b5060c0830151613e1460c08601826137f4565b5060e0830151613e2760e08601826137f4565b50610100830151613e3c610100860182613740565b50610120830151848203610120860152613e568282613844565b915050610140830151613e6d61014086018261393f565b508091505092915050565b6000613e848383613d82565b905092915050565b6000602082019050919050565b6000613ea482613d56565b613eae8185613d61565b935083602082028501613ec085613d72565b8060005b85811015613efc5784840389528151613edd8582613e78565b9450613ee883613e8c565b925060208a01995050600181019050613ec4565b50829750879550505050505092915050565b60006020820190508181036000830152613f288184613e99565b905092915050565b6000613f3b826138d9565b9050919050565b613f4b81613f30565b8114613f5657600080fd5b50565b600081359050613f6881613f42565b92915050565b600060208284031215613f8457613f836136d3565b5b6000613f9284828501613f59565b91505092915050565b600082825260208201905092915050565b6000613fb78261374f565b613fc18185613f9b565b9350613fd181856020860161376b565b613fda8161379e565b840191505092915050565b613fee816137e8565b82525050565b60006101208201905061400a600083018c613d2c565b818103602083015261401c818b613fac565b905061402b604083018a613d2c565b6140386060830189613d2c565b6140456080830188613d2c565b61405260a0830187613d2c565b61405f60c0830186613fe5565b61406c60e0830185613fe5565b61407a610100830184613d2c565b9a9950505050505050505050565b6000806040838503121561409f5761409e6136d3565b5b60006140ad858286016136fe565b92505060206140be858286016136fe565b9150509250929050565b6140d1816138f9565b82525050565b60006060820190506140ec60008301866140c8565b6140f96020830185613d2c565b818103604083015261410b8184613fac565b9050949350505050565b6000602082019050818103600083015261412f8184613fac565b905092915050565b600081519050919050565b600082825260208201905092915050565b6000819050602082019050919050565b600081519050919050565b600082825260208201905092915050565b6000819050602082019050919050565b6000602082019050919050565b60006141a782614163565b6141b1818561416e565b9350836020820285016141c38561417f565b8060005b858110156141ff57848403895281516141e08582613823565b94506141eb8361418f565b925060208a019950506001810190506141c7565b50829750879550505050505092915050565b600061421d838361419c565b905092915050565b6000602082019050919050565b600061423d82614137565b6142478185614142565b93508360208202850161425985614153565b8060005b8581101561429557848403895281516142768582614211565b945061428183614225565b925060208a0199505060018101905061425d565b50829750879550505050505092915050565b600060208201905081810360008301526142c18184614232565b905092915050565b6142d281613f30565b82525050565b60006040820190506142ed6000830185613d2c565b6142fa60208301846142c9565b9392505050565b600081905092915050565b600061431782613803565b6143218185614301565b93508360208202850161433385613819565b8060005b8581101561436f57848403895281516143508582613823565b945061435b83613837565b925060208a01995050600181019050614337565b50829750879550505050505092915050565b6000602082019050818103600083015261439b818461430c565b905092915050565b60006020820190506143b86000830184613fe5565b92915050565b7f4e487b7100000000000000000000000000000000000000000000000000000000600052603260045260246000fd5b7f4e487b7100000000000000000000000000000000000000000000000000000000600052602260045260246000fd5b6000600282049050600182168061443457607f821691505b602082108103614447576144466143ed565b5b50919050565b7f4c6f776572207468616e20737461727420707269636500000000000000000000600082015250565b6000614483601683613f9b565b915061448e8261444d565b602082019050919050565b600060208201905081810360008301526144b281614476565b9050919050565b7f4e487b7100000000000000000000000000000000000000000000000000000000600052601160045260246000fd5b60006144f3826136dd565b91506144fe836136dd565b925082821015614511576145106144b9565b5b828203905092915050565b7f4c6f776572207468616e2063757272656e744269640000000000000000000000600082015250565b6000614552601583613f9b565b915061455d8261451c565b602082019050919050565b6000602082019050818103600083015261458181614545565b9050919050565b6000819050919050565b60006145ad6145a86145a3846138d9565b614588565b6138d9565b9050919050565b60006145bf82614592565b9050919050565b60006145d1826145b4565b9050919050565b6145e1816145c6565b82525050565b6000819050919050565b600061460c614607614602846145e7565b614588565b6136dd565b9050919050565b61461c816145f1565b82525050565b600082825260208201905092915050565b50565b6000614643600083614622565b915061464e82614633565b600082019050919050565b600060a08201905061466e60008301876142c9565b61467b60208301866145d8565b6146886040830185614613565b6146956060830184613d2c565b81810360808301526146a681614636565b905095945050505050565b600060a0820190506146c660008301876145d8565b6146d360208301866145d8565b6146e06040830185614613565b6146ed6060830184613d2c565b81810360808301526146fe81614636565b905095945050505050565b60008190508160005260206000209050919050565b60006020601f8301049050919050565b600082821b905092915050565b60006008830261476b7fffffffffffffffffffffffffffffffffffffffffffffffffffffffffffffffff8261472e565b614775868361472e565b95508019841693508086168417925050509392505050565b60006147a86147a361479e846136dd565b614588565b6136dd565b9050919050565b6000819050919050565b6147c28361478d565b6147d66147ce826147af565b84845461473b565b825550505050565b600090565b6147eb6147de565b6147f68184846147b9565b505050565b5b8181101561481a5761480f6000826147e3565b6001810190506147fc565b5050565b601f82111561485f5761483081614709565b6148398461471e565b81016020851015614848578190505b61485c6148548561471e565b8301826147fb565b50505b505050565b600082821c905092915050565b600061488260001984600802614864565b1980831691505092915050565b600061489b8383614871565b9150826002028217905092915050565b6148b48261374f565b67ffffffffffffffff8111156148cd576148cc613ab8565b5b6148d7825461441c565b6148e282828561481e565b600060209050601f8311600181146149155760008415614903578287015190505b61490d858261488f565b865550614975565b601f19841661492386614709565b60005b8281101561494b57848901518255600182019150602085019450602081019050614926565b868310156149685784890151614964601f891682614871565b8355505b6001600288020188555050505b505050505050565b600060408201905061499260008301856142c9565b61499f6020830184613d2c565b9392505050565b6000815190506149b5816136e7565b92915050565b6000602082840312156149d1576149d06136d3565b5b60006149df848285016149a6565b91505092915050565b7f6c61636b206f662062616c616e63650000000000000000000000000000000000600082015250565b6000614a1e600f83613f9b565b9150614a29826149e8565b602082019050919050565b60006020820190508181036000830152614a4d81614a11565b9050919050565b600060a082019050614a6960008301876142c9565b614a7660208301866145d8565b614a836040830185613d2c565b614a906060830184613d2c565b8181036080830152614aa181614636565b905095945050505050565b6000614ab7826136dd565b91507fffffffffffffffffffffffffffffffffffffffffffffffffffffffffffffffff8203614ae957614ae86144b9565b5b600182019050919050565b600060a082019050614b0960008301876145d8565b614b1660208301866145d8565b614b236040830185613d2c565b614b306060830184613d2c565b8181036080830152614b4181614636565b905095945050505050565b600060a082019050614b6160008301876145d8565b614b6e60208301866142c9565b614b7b6040830185614613565b614b886060830184613d2c565b8181036080830152614b9981614636565b90509594505050505056fea2646970667358221220110b2dda802fdee08235a50487da82960b809217c8fb5e8e05b106fd120e0a4264736f6c634300080f0033",
  "immutableReferences": {},
  "source": "// SPDX-License-Identifier: MIT\n\npragma solidity >=0.5.16;\n\nimport \"./Supply.sol\";\nimport \"./Item.sol\";\n\ncontract AuctionCopyContract {\n\n    ItemContract itemToken;\n\n    SupplyContract supplyContract;\n\n    address payable internal governance;\n\n    constructor(address _itemToken, address _supplyContract)\n    {\n        itemToken = ItemContract(_itemToken);\n        supplyContract = SupplyContract(_supplyContract);\n        //governance = itemToken.getGovernance();\n    }\n\n    Auction[] public auctions;\n\n    mapping(uint256 => Bid[] ) public auctionBids;\n    mapping(address => mapping(uint256 => string[][])) pathMap; // map[buyer][itemId] = history[];\n\n    \n    struct Bid{\n        address payable from;\n        uint256 amount;\n        string shippingTo;\n    }\n    \n\n    struct Auction{\n        uint256 auctionId;\n        string name;\n        uint256 startTime;\n        uint256 blockDeadline;\n        uint256 startPrice;\n        uint256 amount;\n        bool active;\n        bool finalized;\n        uint256 itemId;\n        string[2] shippingAddr;\n        address payable[2] traders;\n    }\n\n\n    modifier onlySeller(uint256 _auctionId) {\n        require(auctions[_auctionId].traders[0] == msg.sender);\n        _;\n    }\n\n    function getAllOfAuctions() public view returns(Auction[] memory){\n        return auctions;\n    }\n\n    function getAuctionsLength() public view returns(uint256){\n        return auctions.length;\n    }\n\n    function getItemByAuction(uint256 _auctionId) public view returns(uint256){\n        return auctions[_auctionId].itemId;\n    }\n\n    function getBidsCount(uint256 _auctionId) public view returns(uint256){\n        return auctionBids[_auctionId].length;\n    }\n\n    function getOwnedAuctions(address _user) public view returns(Auction[] memory){\n       Auction[] memory ownedAuctions;\n       uint256 ownedId = 0;\n       for(uint256 i=0; i<auctions.length; i++){\n            if(auctions[i].traders[0] == payable(_user)){\n                ownedAuctions[ownedId++] = auctions[i];\n            }\n        } \n        return ownedAuctions;\n    }\n\n    \n    function getCurrentBid(uint _auctionId) public view returns(uint256, address) {\n        uint bidsLength =auctionBids[_auctionId].length;\n\n        if(bidsLength > 0){\n            Bid memory lastBid = auctionBids[_auctionId][bidsLength - 1];\n            return (lastBid.amount, lastBid.from);\n        }\n\n        return (uint256(0), address(0));\n    }\n\n    function getAuctionById(uint _auctionId) public view returns(Auction memory){\n        Auction memory auc = auctions[_auctionId];\n        //address _owner = ownerDataContract.getOwnerByAucId(_auctionId);\n        return (auc);\n    }\n\n    function getAuctionNameByAuctionId(uint256 _auctionId) public view returns(string memory){\n        return auctions[_auctionId].name;\n    }\n\n    function createAuction( uint256 _itemId, string memory _auctionTitle, uint256 _startPrice, \n       uint256 _amount, string memory _shippingFrom, uint256 _startTime,  uint256 _blockDeadline) public {\n\n        Auction memory newAuction;\n\n        require(_amount <= itemToken.balanceOf(msg.sender, _itemId), \"lack of balance\");\n\n        itemToken.safeTransferFrom(msg.sender, governance, _itemId, _amount, \"\");\n\n        newAuction.itemId = _itemId;\n        newAuction.name = _auctionTitle;\n        newAuction.startPrice = _startPrice;\n        newAuction.amount = _amount;\n        newAuction.startTime = _startTime;\n        newAuction.blockDeadline = _blockDeadline;\n        newAuction.active = true;\n        newAuction.finalized = false;\n        newAuction.shippingAddr[0] = _shippingFrom;\n\n        auctions.push(newAuction);\n        //ownerDataContract.updateItemOwner(msg.sender, _itemId);\n        //ownerData.pushOwnedBy(msg.sender, _itemId);\n    }\n\n    //function restartAuction(uint256 _auctionId, )\n\n    function cancelAuction(uint _auctionId) public onlySeller(_auctionId){\n        Auction memory auc = auctions[_auctionId];\n        uint bidsLength = auctionBids[_auctionId].length;\n\n        if(bidsLength > 0){\n            Bid memory lastBid = auctionBids[_auctionId][bidsLength -1];\n            itemToken.safeTransferFrom(governance, lastBid.from, 0, lastBid.amount, \"\");\n            itemToken.safeTransferFrom(governance, auc.traders[0], auc.itemId, lastBid.amount, \"\");\n        }\n    }\n\n    function finalizeAuction(uint256 _auctionId) public onlySeller(_auctionId) returns(uint256) {\n        Auction memory auc = auctions[_auctionId];\n        uint256 bidsLength = auctionBids[_auctionId].length;\n        uint256 timeStamp = block.timestamp;\n        //address payable aucOwner = ownerDataContract.getOwnerByAucId(_auctionId);\n        \n\n        if(timeStamp < auc.blockDeadline){\n            revert();\n        }\n        \n        if(bidsLength == 0) {\n            cancelAuction(_auctionId);\n        }else{\n\n            Bid memory lastBid = auctionBids[_auctionId][bidsLength - 1];\n\n            itemToken.safeTransferFrom(governance, msg.sender, 0, lastBid.amount, \"\");\n            itemToken.safeTransferFrom(msg.sender, lastBid.from, auc.itemId, auc.amount, \"\");\n            auc.shippingAddr[1] = lastBid.shippingTo;\n            auctions[_auctionId].finalized = true;\n\n            updateMap(_auctionId);\n            //supplyContract.deliveryPrepareByItemId(_auctionId);\n        }\n\n        auctions[_auctionId].active = false;\n        return 0;\n    }\n\n    function getShippingAddrByAucId(uint256 _auctionId) public view returns(string[2] memory){\n        return auctions[_auctionId].shippingAddr;\n    }\n\n    function bidOnAuction(uint _auctionId, string memory _to, uint _amount) external payable {\n        uint256 timestamp = block.timestamp;\n        //address aucOwner = ownerDataContract.getOwnerByAucId(_auctionId);\n        Auction memory auc = auctions[_auctionId];\n        uint256 startTime = auc.startTime;\n        uint256 deadline = auc.blockDeadline;\n/*\n        if(aucOwner == msg.sender){\n            revert();\n        }\n*/\n        if( (timestamp > deadline) || (timestamp < startTime) ){\n            revert();\n        }\n        \n        uint256 bidsLength = auctionBids[_auctionId].length;\n        uint256 tempAmount = auc.startPrice;\n        Bid memory lastBid;\n        \n        if(_amount < tempAmount){\n            revert();\n        }\n\n        require(_amount > tempAmount, \"Lower than start price\");\n\n        if(bidsLength > 0){\n            lastBid = auctionBids[_auctionId][bidsLength -1];\n            tempAmount = lastBid.amount;\n\n            require(_amount > tempAmount, \"Lower than currentBid\");\n\n            itemToken.safeTransferFrom(msg.sender, governance, 0, _amount, \"\");\n            itemToken.safeTransferFrom(governance, lastBid.from, 0, lastBid.amount, \"\");\n        }\n        \n        Bid memory newBid;\n        newBid.from = payable(msg.sender);\n        newBid.amount = _amount;\n        newBid.shippingTo = _to;\n        auctionBids[_auctionId].push(newBid);\n    }\n\n    function getActiveByAuctionId(uint256 _auctionId) public view returns(bool){\n        return auctions[_auctionId].active;\n    }\n\n    function getWinningPrice(uint256 _auctionId) public view returns(uint256){\n        uint256 len = auctionBids[_auctionId].length;\n        return auctionBids[_auctionId][len-1].amount;\n    } //    \n/*\n    function updateMap(uint256 _auctionId) internal {\n        Auction memory auc = auctions[_auctionId];\n        uint256 _itemId = auc.itemId;\n\n        uint256[] memory newRecord;\n        uint256[][] memory prevMap = aucMap[auc.traders[0]][_itemId];\n        uint256[][] memory nextMap = aucMap[auc.traders[1]][_itemId];\n            \n        if(prevMap.length == 0){\n            newRecord[0] = _auctionId;\n            nextMap[nextMap.length] = newRecord;\n        }\n\n        for(uint256 i=0;i<prevMap.length;i++){\n            newRecord = prevMap[i];\n            newRecord[newRecord.length] = _auctionId;\n            nextMap[nextMap.length] = newRecord; \n        }\n\n        aucMap[auc.traders[1]][_itemId] = nextMap;\n    }\n\n    function getPathByItemId(uint256 _itemId) public view returns(string[][] memory){\n        string[][] memory pathArr;\n        for(uint i=0;i<aucMap[msg.sender][_itemId].length; i++){\n            string[] memory path;\n            uint256[] memory row = aucMap[msg.sender][_itemId][i];\n            for(uint j=0;j<row.length;j++){\n                path[path.length] = auctions[row[j]].shippingAddr[0];\n                path[path.length] = auctions[row[j]].shippingAddr[1];\n            }\n            pathArr[pathArr.length] = path;\n        }\n\n        return pathArr;\n    }\n*/  \n    function updateMap(uint256 _auctionId) internal {\n        Auction memory auc = auctions[_auctionId];\n        uint256 _itemId = auc.itemId;\n\n        string[] memory newRecord;\n        string[][] memory prevMap = pathMap[auc.traders[0]][_itemId];\n        string[][] memory nextMap = pathMap[auc.traders[1]][_itemId];\n            \n        if(prevMap.length == 0){\n            newRecord[0] = auc.shippingAddr[0];\n            newRecord[1] = auc.shippingAddr[1];\n            nextMap[nextMap.length] = newRecord;\n        }\n\n        for(uint256 i=0;i<prevMap.length;i++){\n            newRecord = prevMap[i];\n            newRecord[newRecord.length] = auc.shippingAddr[0];\n            newRecord[newRecord.length] = auc.shippingAddr[0];\n\n            nextMap[nextMap.length] = newRecord; \n        }\n\n        pathMap[auc.traders[1]][_itemId] = nextMap;\n    }\n\n    function getPathByItemId(uint256 _itemId) public view returns(string[][] memory){\n        return pathMap[msg.sender][_itemId];\n    }\n\n}\n\n",
  "sourcePath": "/Users/c_rbi/PNU_test-main/back-end/smart_contract/contracts/Auction copy.sol",
  "compiler": {
    "name": "solc",
    "version": "0.8.15+commit.e14f2714.Emscripten.clang"
  },
  "schemaVersion": "3.4.10",
  "updatedAt": "2022-10-14T16:29:32.930Z",
  "devdoc": {
    "kind": "dev",
    "methods": {},
    "version": 1
  },
  "userdoc": {
    "kind": "user",
    "methods": {},
    "version": 1
  }
}