{
  "contractName": "ItemContract",
  "abi": [
    {
      "inputs": [
        {
          "internalType": "string",
          "name": "_dirCID",
          "type": "string"
        }
      ],
      "stateMutability": "nonpayable",
      "type": "constructor"
    },
    {
      "anonymous": false,
      "inputs": [
        {
          "indexed": true,
          "internalType": "address",
          "name": "account",
          "type": "address"
        },
        {
          "indexed": true,
          "internalType": "address",
          "name": "operator",
          "type": "address"
        },
        {
          "indexed": false,
          "internalType": "bool",
          "name": "approved",
          "type": "bool"
        }
      ],
      "name": "ApprovalForAll",
      "type": "event"
    },
    {
      "anonymous": false,
      "inputs": [
        {
          "indexed": true,
          "internalType": "address",
          "name": "operator",
          "type": "address"
        },
        {
          "indexed": true,
          "internalType": "address",
          "name": "from",
          "type": "address"
        },
        {
          "indexed": true,
          "internalType": "address",
          "name": "to",
          "type": "address"
        },
        {
          "indexed": false,
          "internalType": "uint256[]",
          "name": "ids",
          "type": "uint256[]"
        },
        {
          "indexed": false,
          "internalType": "uint256[]",
          "name": "values",
          "type": "uint256[]"
        }
      ],
      "name": "TransferBatch",
      "type": "event"
    },
    {
      "anonymous": false,
      "inputs": [
        {
          "indexed": true,
          "internalType": "address",
          "name": "operator",
          "type": "address"
        },
        {
          "indexed": true,
          "internalType": "address",
          "name": "from",
          "type": "address"
        },
        {
          "indexed": true,
          "internalType": "address",
          "name": "to",
          "type": "address"
        },
        {
          "indexed": false,
          "internalType": "uint256",
          "name": "id",
          "type": "uint256"
        },
        {
          "indexed": false,
          "internalType": "uint256",
          "name": "value",
          "type": "uint256"
        }
      ],
      "name": "TransferSingle",
      "type": "event"
    },
    {
      "anonymous": false,
      "inputs": [
        {
          "indexed": false,
          "internalType": "string",
          "name": "value",
          "type": "string"
        },
        {
          "indexed": true,
          "internalType": "uint256",
          "name": "id",
          "type": "uint256"
        }
      ],
      "name": "URI",
      "type": "event"
    },
    {
      "inputs": [
        {
          "internalType": "address",
          "name": "account",
          "type": "address"
        },
        {
          "internalType": "uint256",
          "name": "id",
          "type": "uint256"
        }
      ],
      "name": "balanceOf",
      "outputs": [
        {
          "internalType": "uint256",
          "name": "",
          "type": "uint256"
        }
      ],
      "stateMutability": "view",
      "type": "function",
      "constant": true
    },
    {
      "inputs": [
        {
          "internalType": "address[]",
          "name": "accounts",
          "type": "address[]"
        },
        {
          "internalType": "uint256[]",
          "name": "ids",
          "type": "uint256[]"
        }
      ],
      "name": "balanceOfBatch",
      "outputs": [
        {
          "internalType": "uint256[]",
          "name": "",
          "type": "uint256[]"
        }
      ],
      "stateMutability": "view",
      "type": "function",
      "constant": true
    },
    {
      "inputs": [
        {
          "internalType": "address",
          "name": "account",
          "type": "address"
        },
        {
          "internalType": "address",
          "name": "operator",
          "type": "address"
        }
      ],
      "name": "isApprovedForAll",
      "outputs": [
        {
          "internalType": "bool",
          "name": "",
          "type": "bool"
        }
      ],
      "stateMutability": "view",
      "type": "function",
      "constant": true
    },
    {
      "inputs": [
        {
          "internalType": "address",
          "name": "from",
          "type": "address"
        },
        {
          "internalType": "address",
          "name": "to",
          "type": "address"
        },
        {
          "internalType": "uint256[]",
          "name": "ids",
          "type": "uint256[]"
        },
        {
          "internalType": "uint256[]",
          "name": "amounts",
          "type": "uint256[]"
        },
        {
          "internalType": "bytes",
          "name": "data",
          "type": "bytes"
        }
      ],
      "name": "safeBatchTransferFrom",
      "outputs": [],
      "stateMutability": "nonpayable",
      "type": "function"
    },
    {
      "inputs": [
        {
          "internalType": "address",
          "name": "from",
          "type": "address"
        },
        {
          "internalType": "address",
          "name": "to",
          "type": "address"
        },
        {
          "internalType": "uint256",
          "name": "id",
          "type": "uint256"
        },
        {
          "internalType": "uint256",
          "name": "amount",
          "type": "uint256"
        },
        {
          "internalType": "bytes",
          "name": "data",
          "type": "bytes"
        }
      ],
      "name": "safeTransferFrom",
      "outputs": [],
      "stateMutability": "nonpayable",
      "type": "function"
    },
    {
      "inputs": [
        {
          "internalType": "bytes4",
          "name": "interfaceId",
          "type": "bytes4"
        }
      ],
      "name": "supportsInterface",
      "outputs": [
        {
          "internalType": "bool",
          "name": "",
          "type": "bool"
        }
      ],
      "stateMutability": "view",
      "type": "function",
      "constant": true
    },
    {
      "inputs": [
        {
          "internalType": "uint256",
          "name": "",
          "type": "uint256"
        }
      ],
      "name": "uri",
      "outputs": [
        {
          "internalType": "string",
          "name": "",
          "type": "string"
        }
      ],
      "stateMutability": "view",
      "type": "function",
      "constant": true
    },
    {
      "inputs": [
        {
          "internalType": "uint256",
          "name": "itemId",
          "type": "uint256"
        }
      ],
      "name": "getProducerOf",
      "outputs": [
        {
          "internalType": "address",
          "name": "",
          "type": "address"
        }
      ],
      "stateMutability": "view",
      "type": "function",
      "constant": true
    },
    {
      "inputs": [
        {
          "internalType": "address",
          "name": "_user",
          "type": "address"
        }
      ],
      "name": "getIsProducer",
      "outputs": [
        {
          "internalType": "bool",
          "name": "",
          "type": "bool"
        }
      ],
      "stateMutability": "view",
      "type": "function",
      "constant": true
    },
    {
      "inputs": [],
      "name": "getMsgSender",
      "outputs": [
        {
          "internalType": "address",
          "name": "",
          "type": "address"
        }
      ],
      "stateMutability": "view",
      "type": "function",
      "constant": true
    },
    {
      "inputs": [],
      "name": "getIsManager",
      "outputs": [
        {
          "internalType": "bool",
          "name": "",
          "type": "bool"
        }
      ],
      "stateMutability": "view",
      "type": "function",
      "constant": true
    },
    {
      "inputs": [
        {
          "internalType": "address",
          "name": "auctionAddress",
          "type": "address"
        }
      ],
      "name": "setGovernance",
      "outputs": [],
      "stateMutability": "nonpayable",
      "type": "function"
    },
    {
      "inputs": [
        {
          "internalType": "address",
          "name": "operator",
          "type": "address"
        },
        {
          "internalType": "bool",
          "name": "approved",
          "type": "bool"
        }
      ],
      "name": "setApprovalForAll",
      "outputs": [],
      "stateMutability": "nonpayable",
      "type": "function"
    },
    {
      "inputs": [],
      "name": "getGovernance",
      "outputs": [
        {
          "internalType": "address",
          "name": "",
          "type": "address"
        }
      ],
      "stateMutability": "view",
      "type": "function",
      "constant": true
    },
    {
      "inputs": [
        {
          "internalType": "address",
          "name": "_user",
          "type": "address"
        },
        {
          "internalType": "bool",
          "name": "_approved",
          "type": "bool"
        }
      ],
      "name": "setApprovalForUser",
      "outputs": [],
      "stateMutability": "nonpayable",
      "type": "function"
    },
    {
      "inputs": [
        {
          "internalType": "address payable",
          "name": "_user",
          "type": "address"
        }
      ],
      "name": "WeitoMMT",
      "outputs": [],
      "stateMutability": "payable",
      "type": "function",
      "payable": true
    },
    {
      "inputs": [
        {
          "internalType": "address payable",
          "name": "_user",
          "type": "address"
        }
      ],
      "name": "ETHtoMMT",
      "outputs": [],
      "stateMutability": "payable",
      "type": "function",
      "payable": true
    },
    {
      "inputs": [
        {
          "internalType": "uint256",
          "name": "amount",
          "type": "uint256"
        }
      ],
      "name": "MMTtoETH",
      "outputs": [],
      "stateMutability": "payable",
      "type": "function",
      "payable": true
    },
    {
      "inputs": [
        {
          "internalType": "uint256",
          "name": "_amount",
          "type": "uint256"
        }
      ],
      "name": "mintMMT",
      "outputs": [],
      "stateMutability": "nonpayable",
      "type": "function"
    },
    {
      "inputs": [
        {
          "internalType": "uint256",
          "name": "stock",
          "type": "uint256"
        },
        {
          "internalType": "uint256",
          "name": "itemId",
          "type": "uint256"
        }
      ],
      "name": "mintItemByItemId",
      "outputs": [],
      "stateMutability": "nonpayable",
      "type": "function"
    },
    {
      "inputs": [],
      "name": "getItemId",
      "outputs": [
        {
          "internalType": "uint256",
          "name": "",
          "type": "uint256"
        }
      ],
      "stateMutability": "view",
      "type": "function",
      "constant": true
    },
    {
      "inputs": [
        {
          "internalType": "uint256",
          "name": "amount",
          "type": "uint256"
        },
        {
          "internalType": "string",
          "name": "dirCID",
          "type": "string"
        }
      ],
      "name": "createItem",
      "outputs": [],
      "stateMutability": "nonpayable",
      "type": "function"
    },
    {
      "inputs": [
        {
          "internalType": "uint256",
          "name": "itemId",
          "type": "uint256"
        }
      ],
      "name": "getURI",
      "outputs": [
        {
          "internalType": "string",
          "name": "",
          "type": "string"
        }
      ],
      "stateMutability": "view",
      "type": "function",
      "constant": true
    },
    {
      "inputs": [
        {
          "internalType": "uint256",
          "name": "itemId",
          "type": "uint256"
        },
        {
          "internalType": "uint256",
          "name": "_amount",
          "type": "uint256"
        }
      ],
      "name": "burn",
      "outputs": [],
      "stateMutability": "nonpayable",
      "type": "function"
    },
    {
      "inputs": [
        {
          "internalType": "bool",
          "name": "flag",
          "type": "bool"
        }
      ],
      "name": "setUserToProducer",
      "outputs": [],
      "stateMutability": "nonpayable",
      "type": "function"
    },
    {
      "inputs": [
        {
          "internalType": "bool",
          "name": "flag",
          "type": "bool"
        }
      ],
      "name": "setUserToManager",
      "outputs": [],
      "stateMutability": "nonpayable",
      "type": "function"
    }
  ],
  "bytecode": "0x608060405260405180604001604052806040518060400160405280601581526020017f68747470733a2f2f697066732e696f2f697066732f000000000000000000000081525081526020016040518060400160405280600a81526020017f2f7b69647d2e6a736f6e00000000000000000000000000000000000000000000815250815250600590600262000095929190620001b7565b50348015620000a357600080fd5b5060405162004f9f38038062004f9f8339818101604052810190620000c9919062000434565b6005600060028110620000e157620000e062000485565b5b0181604051602001620000f692919062000609565b60405160208183030381529060405260056001600281106200011d576200011c62000485565b5b016040516020016200013192919062000631565b6040516020818303038152906040526200015181620001a260201b60201c565b50600160038190555033600460006101000a81548173ffffffffffffffffffffffffffffffffffffffff021916908373ffffffffffffffffffffffffffffffffffffffff1602179055505062000907565b8060029081620001b3919062000820565b5050565b8260028101928215620001f7579160200282015b82811115620001f6578251829081620001e5919062000820565b5091602001919060010190620001cb565b5b5090506200020691906200020a565b5090565b5b808211156200022e576000818162000224919062000232565b506001016200020b565b5090565b5080546200024090620004e3565b6000825580601f1062000254575062000275565b601f01602090049060005260206000209081019062000274919062000278565b5b50565b5b808211156200029357600081600090555060010162000279565b5090565b6000604051905090565b600080fd5b600080fd5b600080fd5b600080fd5b6000601f19601f8301169050919050565b7f4e487b7100000000000000000000000000000000000000000000000000000000600052604160045260246000fd5b6200030082620002b5565b810181811067ffffffffffffffff82111715620003225762000321620002c6565b5b80604052505050565b60006200033762000297565b9050620003458282620002f5565b919050565b600067ffffffffffffffff821115620003685762000367620002c6565b5b6200037382620002b5565b9050602081019050919050565b60005b83811015620003a057808201518184015260208101905062000383565b83811115620003b0576000848401525b50505050565b6000620003cd620003c7846200034a565b6200032b565b905082815260208101848484011115620003ec57620003eb620002b0565b5b620003f984828562000380565b509392505050565b600082601f830112620004195762000418620002ab565b5b81516200042b848260208601620003b6565b91505092915050565b6000602082840312156200044d576200044c620002a1565b5b600082015167ffffffffffffffff8111156200046e576200046d620002a6565b5b6200047c8482850162000401565b91505092915050565b7f4e487b7100000000000000000000000000000000000000000000000000000000600052603260045260246000fd5b7f4e487b7100000000000000000000000000000000000000000000000000000000600052602260045260246000fd5b60006002820490506001821680620004fc57607f821691505b602082108103620005125762000511620004b4565b5b50919050565b600081905092915050565b60008190508160005260206000209050919050565b600081546200054781620004e3565b62000553818662000518565b945060018216600081146200057157600181146200058757620005be565b60ff1983168652811515820286019350620005be565b620005928562000523565b60005b83811015620005b65781548189015260018201915060208101905062000595565b838801955050505b50505092915050565b600081519050919050565b6000620005df82620005c7565b620005eb818562000518565b9350620005fd81856020860162000380565b80840191505092915050565b600062000617828562000538565b9150620006258284620005d2565b91508190509392505050565b60006200063f8285620005d2565b91506200064d828462000538565b91508190509392505050565b60006020601f8301049050919050565b600082821b905092915050565b600060088302620006a87fffffffffffffffffffffffffffffffffffffffffffffffffffffffffffffffff8262000669565b620006b4868362000669565b95508019841693508086168417925050509392505050565b6000819050919050565b6000819050919050565b600062000701620006fb620006f584620006cc565b620006d6565b620006cc565b9050919050565b6000819050919050565b6200071d83620006e0565b620007356200072c8262000708565b84845462000676565b825550505050565b600090565b6200074c6200073d565b6200075981848462000712565b505050565b5b8181101562000781576200077560008262000742565b6001810190506200075f565b5050565b601f821115620007d0576200079a8162000523565b620007a58462000659565b81016020851015620007b5578190505b620007cd620007c48562000659565b8301826200075e565b50505b505050565b600082821c905092915050565b6000620007f560001984600802620007d5565b1980831691505092915050565b6000620008108383620007e2565b9150826002028217905092915050565b6200082b82620005c7565b67ffffffffffffffff811115620008475762000846620002c6565b5b620008538254620004e3565b6200086082828562000785565b600060209050601f83116001811462000898576000841562000883578287015190505b6200088f858262000802565b865550620008ff565b601f198416620008a88662000523565b60005b82811015620008d257848901518255600182019150602085019450602081019050620008ab565b86831015620008f25784890151620008ee601f891682620007e2565b8355505b6001600288020188555050505b505050505050565b61468880620009176000396000f3fe6080604052600436106101805760003560e01c806350c30a0a116100d1578063ab033ea91161008a578063bcc30b3511610064578063bcc30b3514610585578063cf2e94ad146105ae578063e985e9c5146105ca578063f242432a1461060757610180565b8063ab033ea91461050a578063b390c0ab14610533578063ba5a94141461055c57610180565b806350c30a0a1461040b5780635a15c17c146104345780637a6ce2e11461045d5780638a59e193146104885780638b5eab21146104a4578063a22cb465146104e157610180565b8063293b61f21161013e57806330d7ffba1161011857806330d7ffba14610351578063445f76d71461037a578063454a2645146103a55780634e1273f4146103ce57610180565b8063293b61f2146102cf5780632e3d132f1461030c5780632eb2c2d61461032857610180565b8062fdd58e1461018557806301ffc9a7146101c25780630e89341c146101ff5780631aa347dc1461023c57806328658ae514610279578063289b3c0d146102a4575b600080fd5b34801561019157600080fd5b506101ac60048036038101906101a79190612978565b610630565b6040516101b991906129c7565b60405180910390f35b3480156101ce57600080fd5b506101e960048036038101906101e49190612a3a565b6106f8565b6040516101f69190612a82565b60405180910390f35b34801561020b57600080fd5b5061022660048036038101906102219190612a9d565b6107da565b6040516102339190612b63565b60405180910390f35b34801561024857600080fd5b50610263600480360381019061025e9190612a9d565b61086e565b6040516102709190612b63565b60405180910390f35b34801561028557600080fd5b5061028e610880565b60405161029b9190612a82565b60405180910390f35b3480156102b057600080fd5b506102b96108d4565b6040516102c69190612b94565b60405180910390f35b3480156102db57600080fd5b506102f660048036038101906102f19190612a9d565b6108fe565b6040516103039190612b94565b60405180910390f35b61032660048036038101906103219190612bed565b61093b565b005b34801561033457600080fd5b5061034f600480360381019061034a9190612e17565b610a35565b005b34801561035d57600080fd5b5061037860048036038101906103739190612f12565b610ad6565b005b34801561038657600080fd5b5061038f610b30565b60405161039c91906129c7565b60405180910390f35b3480156103b157600080fd5b506103cc60048036038101906103c79190612f3f565b610b3a565b005b3480156103da57600080fd5b506103f560048036038101906103f09190613042565b610d1e565b6040516104029190613178565b60405180910390f35b34801561041757600080fd5b50610432600480360381019061042d919061319a565b610e37565b005b34801561044057600080fd5b5061045b60048036038101906104569190612f12565b610f19565b005b34801561046957600080fd5b50610472610f73565b60405161047f9190612b94565b60405180910390f35b6104a2600480360381019061049d9190612bed565b610f7b565b005b3480156104b057600080fd5b506104cb60048036038101906104c691906131da565b61105c565b6040516104d89190612a82565b60405180910390f35b3480156104ed57600080fd5b506105086004803603810190610503919061319a565b6110b2565b005b34801561051657600080fd5b50610531600480360381019061052c91906131da565b6110c8565b005b34801561053f57600080fd5b5061055a60048036038101906105559190612f3f565b61135f565b005b34801561056857600080fd5b50610583600480360381019061057e91906132a8565b61136e565b005b34801561059157600080fd5b506105ac60048036038101906105a79190612a9d565b6115c2565b005b6105c860048036038101906105c39190612a9d565b611671565b005b3480156105d657600080fd5b506105f160048036038101906105ec9190613304565b61179d565b6040516105fe9190612a82565b60405180910390f35b34801561061357600080fd5b5061062e60048036038101906106299190613344565b611831565b005b60008073ffffffffffffffffffffffffffffffffffffffff168373ffffffffffffffffffffffffffffffffffffffff16036106a0576040517f08c379a00000000000000000000000000000000000000000000000000000000081526004016106979061344d565b60405180910390fd5b60008083815260200190815260200160002060008473ffffffffffffffffffffffffffffffffffffffff1673ffffffffffffffffffffffffffffffffffffffff16815260200190815260200160002054905092915050565b60007fd9b67a26000000000000000000000000000000000000000000000000000000007bffffffffffffffffffffffffffffffffffffffffffffffffffffffff1916827bffffffffffffffffffffffffffffffffffffffffffffffffffffffff191614806107c357507f0e89341c000000000000000000000000000000000000000000000000000000007bffffffffffffffffffffffffffffffffffffffffffffffffffffffff1916827bffffffffffffffffffffffffffffffffffffffffffffffffffffffff1916145b806107d357506107d2826118d2565b5b9050919050565b6060600280546107e99061349c565b80601f01602080910402602001604051908101604052809291908181526020018280546108159061349c565b80156108625780601f1061083757610100808354040283529160200191610862565b820191906000526020600020905b81548152906001019060200180831161084557829003601f168201915b50505050509050919050565b6060610879826107da565b9050919050565b6000600960003373ffffffffffffffffffffffffffffffffffffffff1673ffffffffffffffffffffffffffffffffffffffff16815260200190815260200160002060009054906101000a900460ff16905090565b6000600460009054906101000a900473ffffffffffffffffffffffffffffffffffffffff16905090565b60006007600083815260200190815260200160002060009054906101000a900473ffffffffffffffffffffffffffffffffffffffff169050919050565b6000670de0b6b3a764000034610951919061352b565b905060003411610996576040517f08c379a000000000000000000000000000000000000000000000000000000000815260040161098d906135ce565b60405180910390fd5b6109c4600460009054906101000a900473ffffffffffffffffffffffffffffffffffffffff1683600161193c565b610a03600460009054906101000a900473ffffffffffffffffffffffffffffffffffffffff168360008460405180602001604052806000815250611831565b610a31600460009054906101000a900473ffffffffffffffffffffffffffffffffffffffff1683600061193c565b5050565b610a3d611aa8565b73ffffffffffffffffffffffffffffffffffffffff168573ffffffffffffffffffffffffffffffffffffffff161480610a835750610a8285610a7d611aa8565b61179d565b5b610ac2576040517f08c379a0000000000000000000000000000000000000000000000000000000008152600401610ab990613660565b60405180910390fd5b610acf8585858585611ab0565b5050505050565b80600860003373ffffffffffffffffffffffffffffffffffffffff1673ffffffffffffffffffffffffffffffffffffffff16815260200190815260200160002060006101000a81548160ff02191690831515021790555050565b6000600354905090565b600860003373ffffffffffffffffffffffffffffffffffffffff1673ffffffffffffffffffffffffffffffffffffffff16815260200190815260200160002060009054906101000a900460ff1680610bdf57503373ffffffffffffffffffffffffffffffffffffffff16600460009054906101000a900473ffffffffffffffffffffffffffffffffffffffff1673ffffffffffffffffffffffffffffffffffffffff16145b610c1e576040517f08c379a0000000000000000000000000000000000000000000000000000000008152600401610c15906136cc565b60405180910390fd5b600354811115610c63576040517f08c379a0000000000000000000000000000000000000000000000000000000008152600401610c5a9061375e565b60405180910390fd5b600081141580610cc05750600460009054906101000a900473ffffffffffffffffffffffffffffffffffffffff1673ffffffffffffffffffffffffffffffffffffffff163373ffffffffffffffffffffffffffffffffffffffff16145b610cff576040517f08c379a0000000000000000000000000000000000000000000000000000000008152600401610cf6906137f0565b60405180910390fd5b610d1a33828460405180602001604052806000815250611dd1565b5050565b60608151835114610d64576040517f08c379a0000000000000000000000000000000000000000000000000000000008152600401610d5b90613882565b60405180910390fd5b6000835167ffffffffffffffff811115610d8157610d80612c1f565b5b604051908082528060200260200182016040528015610daf5781602001602082028036833780820191505090505b50905060005b8451811015610e2c57610dfc858281518110610dd457610dd36138a2565b5b6020026020010151858381518110610def57610dee6138a2565b5b6020026020010151610630565b828281518110610e0f57610e0e6138a2565b5b60200260200101818152505080610e25906138d1565b9050610db5565b508091505092915050565b600073ffffffffffffffffffffffffffffffffffffffff16600460009054906101000a900473ffffffffffffffffffffffffffffffffffffffff1673ffffffffffffffffffffffffffffffffffffffff1603610e9257600080fd5b600460009054906101000a900473ffffffffffffffffffffffffffffffffffffffff1673ffffffffffffffffffffffffffffffffffffffff168273ffffffffffffffffffffffffffffffffffffffff1614610f1557610f1482600460009054906101000a900473ffffffffffffffffffffffffffffffffffffffff168361193c565b5b5050565b80600960003373ffffffffffffffffffffffffffffffffffffffff1673ffffffffffffffffffffffffffffffffffffffff16815260200190815260200160002060006101000a81548160ff02191690831515021790555050565b600033905090565b60003411610fbe576040517f08c379a0000000000000000000000000000000000000000000000000000000008152600401610fb5906135ce565b60405180910390fd5b610fec600460009054906101000a900473ffffffffffffffffffffffffffffffffffffffff1682600161193c565b61102b600460009054906101000a900473ffffffffffffffffffffffffffffffffffffffff168260003460405180602001604052806000815250611831565b611059600460009054906101000a900473ffffffffffffffffffffffffffffffffffffffff1682600061193c565b50565b6000600860008373ffffffffffffffffffffffffffffffffffffffff1673ffffffffffffffffffffffffffffffffffffffff16815260200190815260200160002060009054906101000a900460ff169050919050565b6110c46110bd611aa8565b838361193c565b5050565b600460009054906101000a900473ffffffffffffffffffffffffffffffffffffffff1673ffffffffffffffffffffffffffffffffffffffff163373ffffffffffffffffffffffffffffffffffffffff1614611158576040517f08c379a000000000000000000000000000000000000000000000000000000000815260040161114f90613965565b60405180910390fd5b80600460006101000a81548173ffffffffffffffffffffffffffffffffffffffff021916908373ffffffffffffffffffffffffffffffffffffffff160217905550600160086000600460009054906101000a900473ffffffffffffffffffffffffffffffffffffffff1673ffffffffffffffffffffffffffffffffffffffff1673ffffffffffffffffffffffffffffffffffffffff16815260200190815260200160002060006101000a81548160ff021916908315150217905550600160096000600460009054906101000a900473ffffffffffffffffffffffffffffffffffffffff1673ffffffffffffffffffffffffffffffffffffffff1673ffffffffffffffffffffffffffffffffffffffff16815260200190815260200160002060006101000a81548160ff0219169083151502179055506112d3600460009054906101000a900473ffffffffffffffffffffffffffffffffffffffff166000670de0b6b3a764000060405180602001604052806000815250611dd1565b600a6000600460009054906101000a900473ffffffffffffffffffffffffffffffffffffffff1673ffffffffffffffffffffffffffffffffffffffff1673ffffffffffffffffffffffffffffffffffffffff1681526020019081526020016000206000908060018154018082558091505060019003906000526020600020016000909190919091505550565b61136a338383611f81565b5050565b600860003373ffffffffffffffffffffffffffffffffffffffff1673ffffffffffffffffffffffffffffffffffffffff16815260200190815260200160002060009054906101000a900460ff168061141357503373ffffffffffffffffffffffffffffffffffffffff16600460009054906101000a900473ffffffffffffffffffffffffffffffffffffffff1673ffffffffffffffffffffffffffffffffffffffff16145b611452576040517f08c379a0000000000000000000000000000000000000000000000000000000008152600401611449906136cc565b60405180910390fd5b60006005600060028110611469576114686138a2565b5b018260405160200161147c929190613a59565b60405160208183030381529060405260056001600281106114a05761149f6138a2565b5b016040516020016114b2929190613a7d565b60405160208183030381529060405290506114cc816121c7565b6114e9336003548560405180602001604052806000815250611dd1565b600a60003373ffffffffffffffffffffffffffffffffffffffff1673ffffffffffffffffffffffffffffffffffffffff16815260200190815260200160002060035490806001815401808255809150506001900390600052602060002001600090919091909150553360076000600354815260200190815260200160002060006101000a81548173ffffffffffffffffffffffffffffffffffffffff021916908373ffffffffffffffffffffffffffffffffffffffff160217905550600360008154809291906115b8906138d1565b9190505550505050565b600460009054906101000a900473ffffffffffffffffffffffffffffffffffffffff1673ffffffffffffffffffffffffffffffffffffffff163373ffffffffffffffffffffffffffffffffffffffff1614611652576040517f08c379a000000000000000000000000000000000000000000000000000000000815260040161164990613965565b60405180910390fd5b61166e3360008360405180602001604052806000815250611dd1565b50565b600081116116b4576040517f08c379a00000000000000000000000000000000000000000000000000000000081526004016116ab90613aed565b60405180910390fd5b806116c0336000610630565b1015611701576040517f08c379a00000000000000000000000000000000000000000000000000000000081526004016116f890613b7f565b60405180910390fd5b3373ffffffffffffffffffffffffffffffffffffffff166108fc670de0b6b3a76400008361172f9190613b9f565b9081150290604051600060405180830381858888f1935050505015801561175a573d6000803e3d6000fd5b5061179a33600460009054906101000a900473ffffffffffffffffffffffffffffffffffffffff1660008460405180602001604052806000815250611831565b50565b6000600160008473ffffffffffffffffffffffffffffffffffffffff1673ffffffffffffffffffffffffffffffffffffffff16815260200190815260200160002060008373ffffffffffffffffffffffffffffffffffffffff1673ffffffffffffffffffffffffffffffffffffffff16815260200190815260200160002060009054906101000a900460ff16905092915050565b611839611aa8565b73ffffffffffffffffffffffffffffffffffffffff168573ffffffffffffffffffffffffffffffffffffffff16148061187f575061187e85611879611aa8565b61179d565b5b6118be576040517f08c379a00000000000000000000000000000000000000000000000000000000081526004016118b590613660565b60405180910390fd5b6118cb85858585856121da565b5050505050565b60007f01ffc9a7000000000000000000000000000000000000000000000000000000007bffffffffffffffffffffffffffffffffffffffffffffffffffffffff1916827bffffffffffffffffffffffffffffffffffffffffffffffffffffffff1916149050919050565b8173ffffffffffffffffffffffffffffffffffffffff168373ffffffffffffffffffffffffffffffffffffffff16036119aa576040517f08c379a00000000000000000000000000000000000000000000000000000000081526004016119a190613c6b565b60405180910390fd5b80600160008573ffffffffffffffffffffffffffffffffffffffff1673ffffffffffffffffffffffffffffffffffffffff16815260200190815260200160002060008473ffffffffffffffffffffffffffffffffffffffff1673ffffffffffffffffffffffffffffffffffffffff16815260200190815260200160002060006101000a81548160ff0219169083151502179055508173ffffffffffffffffffffffffffffffffffffffff168373ffffffffffffffffffffffffffffffffffffffff167f17307eab39ab6107e8899845ad3d59bd9653f200f220920489ca2b5937696c3183604051611a9b9190612a82565b60405180910390a3505050565b600033905090565b8151835114611af4576040517f08c379a0000000000000000000000000000000000000000000000000000000008152600401611aeb90613cfd565b60405180910390fd5b600073ffffffffffffffffffffffffffffffffffffffff168473ffffffffffffffffffffffffffffffffffffffff1603611b63576040517f08c379a0000000000000000000000000000000000000000000000000000000008152600401611b5a90613d8f565b60405180910390fd5b6000611b6d611aa8565b9050611b7d818787878787612475565b60005b8451811015611d2e576000858281518110611b9e57611b9d6138a2565b5b602002602001015190506000858381518110611bbd57611bbc6138a2565b5b60200260200101519050600080600084815260200190815260200160002060008b73ffffffffffffffffffffffffffffffffffffffff1673ffffffffffffffffffffffffffffffffffffffff16815260200190815260200160002054905081811015611c5e576040517f08c379a0000000000000000000000000000000000000000000000000000000008152600401611c5590613e21565b60405180910390fd5b81810360008085815260200190815260200160002060008c73ffffffffffffffffffffffffffffffffffffffff1673ffffffffffffffffffffffffffffffffffffffff168152602001908152602001600020819055508160008085815260200190815260200160002060008b73ffffffffffffffffffffffffffffffffffffffff1673ffffffffffffffffffffffffffffffffffffffff1681526020019081526020016000206000828254611d139190613e41565b9250508190555050505080611d27906138d1565b9050611b80565b508473ffffffffffffffffffffffffffffffffffffffff168673ffffffffffffffffffffffffffffffffffffffff168273ffffffffffffffffffffffffffffffffffffffff167f4a39dc06d4c0dbc64b70af90fd698a233a518aa5d07e595d983b8c0526c8f7fb8787604051611da5929190613e97565b60405180910390a4611dbb81878787878761247d565b611dc9818787878787612485565b505050505050565b600073ffffffffffffffffffffffffffffffffffffffff168473ffffffffffffffffffffffffffffffffffffffff1603611e40576040517f08c379a0000000000000000000000000000000000000000000000000000000008152600401611e3790613f40565b60405180910390fd5b6000611e4a611aa8565b90506000611e578561265c565b90506000611e648561265c565b9050611e7583600089858589612475565b8460008088815260200190815260200160002060008973ffffffffffffffffffffffffffffffffffffffff1673ffffffffffffffffffffffffffffffffffffffff1681526020019081526020016000206000828254611ed49190613e41565b925050819055508673ffffffffffffffffffffffffffffffffffffffff16600073ffffffffffffffffffffffffffffffffffffffff168473ffffffffffffffffffffffffffffffffffffffff167fc3d58168c5ae7397731d063d5bbf3d657854427343f4c083240f7aacaa2d0f628989604051611f52929190613f60565b60405180910390a4611f698360008985858961247d565b611f78836000898989896126d6565b50505050505050565b600073ffffffffffffffffffffffffffffffffffffffff168373ffffffffffffffffffffffffffffffffffffffff1603611ff0576040517f08c379a0000000000000000000000000000000000000000000000000000000008152600401611fe790613ffb565b60405180910390fd5b6000611ffa611aa8565b905060006120078461265c565b905060006120148461265c565b905061203483876000858560405180602001604052806000815250612475565b600080600087815260200190815260200160002060008873ffffffffffffffffffffffffffffffffffffffff1673ffffffffffffffffffffffffffffffffffffffff168152602001908152602001600020549050848110156120cb576040517f08c379a00000000000000000000000000000000000000000000000000000000081526004016120c29061408d565b60405180910390fd5b84810360008088815260200190815260200160002060008973ffffffffffffffffffffffffffffffffffffffff1673ffffffffffffffffffffffffffffffffffffffff16815260200190815260200160002081905550600073ffffffffffffffffffffffffffffffffffffffff168773ffffffffffffffffffffffffffffffffffffffff168573ffffffffffffffffffffffffffffffffffffffff167fc3d58168c5ae7397731d063d5bbf3d657854427343f4c083240f7aacaa2d0f628989604051612198929190613f60565b60405180910390a46121be8488600086866040518060200160405280600081525061247d565b50505050505050565b80600290816121d69190614244565b5050565b600073ffffffffffffffffffffffffffffffffffffffff168473ffffffffffffffffffffffffffffffffffffffff1603612249576040517f08c379a000000000000000000000000000000000000000000000000000000000815260040161224090613d8f565b60405180910390fd5b6000612253611aa8565b905060006122608561265c565b9050600061226d8561265c565b905061227d838989858589612475565b600080600088815260200190815260200160002060008a73ffffffffffffffffffffffffffffffffffffffff1673ffffffffffffffffffffffffffffffffffffffff16815260200190815260200160002054905085811015612314576040517f08c379a000000000000000000000000000000000000000000000000000000000815260040161230b90613e21565b60405180910390fd5b85810360008089815260200190815260200160002060008b73ffffffffffffffffffffffffffffffffffffffff1673ffffffffffffffffffffffffffffffffffffffff168152602001908152602001600020819055508560008089815260200190815260200160002060008a73ffffffffffffffffffffffffffffffffffffffff1673ffffffffffffffffffffffffffffffffffffffff16815260200190815260200160002060008282546123c99190613e41565b925050819055508773ffffffffffffffffffffffffffffffffffffffff168973ffffffffffffffffffffffffffffffffffffffff168573ffffffffffffffffffffffffffffffffffffffff167fc3d58168c5ae7397731d063d5bbf3d657854427343f4c083240f7aacaa2d0f628a8a604051612446929190613f60565b60405180910390a461245c848a8a86868a61247d565b61246a848a8a8a8a8a6126d6565b505050505050505050565b505050505050565b505050505050565b6124a48473ffffffffffffffffffffffffffffffffffffffff166128ad565b15612654578373ffffffffffffffffffffffffffffffffffffffff1663bc197c8187878686866040518663ffffffff1660e01b81526004016124ea95949392919061436b565b6020604051808303816000875af192505050801561252657506040513d601f19601f8201168201806040525081019061252391906143e8565b60015b6125cb57612532614422565b806308c379a00361258e5750612546614444565b806125515750612590565b806040517f08c379a00000000000000000000000000000000000000000000000000000000081526004016125859190612b63565b60405180910390fd5b505b6040517f08c379a00000000000000000000000000000000000000000000000000000000081526004016125c290614546565b60405180910390fd5b63bc197c8160e01b7bffffffffffffffffffffffffffffffffffffffffffffffffffffffff1916817bffffffffffffffffffffffffffffffffffffffffffffffffffffffff191614612652576040517f08c379a0000000000000000000000000000000000000000000000000000000008152600401612649906145d8565b60405180910390fd5b505b505050505050565b60606000600167ffffffffffffffff81111561267b5761267a612c1f565b5b6040519080825280602002602001820160405280156126a95781602001602082028036833780820191505090505b50905082816000815181106126c1576126c06138a2565b5b60200260200101818152505080915050919050565b6126f58473ffffffffffffffffffffffffffffffffffffffff166128ad565b156128a5578373ffffffffffffffffffffffffffffffffffffffff1663f23a6e6187878686866040518663ffffffff1660e01b815260040161273b9594939291906145f8565b6020604051808303816000875af192505050801561277757506040513d601f19601f8201168201806040525081019061277491906143e8565b60015b61281c57612783614422565b806308c379a0036127df5750612797614444565b806127a257506127e1565b806040517f08c379a00000000000000000000000000000000000000000000000000000000081526004016127d69190612b63565b60405180910390fd5b505b6040517f08c379a000000000000000000000000000000000000000000000000000000000815260040161281390614546565b60405180910390fd5b63f23a6e6160e01b7bffffffffffffffffffffffffffffffffffffffffffffffffffffffff1916817bffffffffffffffffffffffffffffffffffffffffffffffffffffffff1916146128a3576040517f08c379a000000000000000000000000000000000000000000000000000000000815260040161289a906145d8565b60405180910390fd5b505b505050505050565b6000808273ffffffffffffffffffffffffffffffffffffffff163b119050919050565b6000604051905090565b600080fd5b600080fd5b600073ffffffffffffffffffffffffffffffffffffffff82169050919050565b600061290f826128e4565b9050919050565b61291f81612904565b811461292a57600080fd5b50565b60008135905061293c81612916565b92915050565b6000819050919050565b61295581612942565b811461296057600080fd5b50565b6000813590506129728161294c565b92915050565b6000806040838503121561298f5761298e6128da565b5b600061299d8582860161292d565b92505060206129ae85828601612963565b9150509250929050565b6129c181612942565b82525050565b60006020820190506129dc60008301846129b8565b92915050565b60007fffffffff0000000000000000000000000000000000000000000000000000000082169050919050565b612a17816129e2565b8114612a2257600080fd5b50565b600081359050612a3481612a0e565b92915050565b600060208284031215612a5057612a4f6128da565b5b6000612a5e84828501612a25565b91505092915050565b60008115159050919050565b612a7c81612a67565b82525050565b6000602082019050612a976000830184612a73565b92915050565b600060208284031215612ab357612ab26128da565b5b6000612ac184828501612963565b91505092915050565b600081519050919050565b600082825260208201905092915050565b60005b83811015612b04578082015181840152602081019050612ae9565b83811115612b13576000848401525b50505050565b6000601f19601f8301169050919050565b6000612b3582612aca565b612b3f8185612ad5565b9350612b4f818560208601612ae6565b612b5881612b19565b840191505092915050565b60006020820190508181036000830152612b7d8184612b2a565b905092915050565b612b8e81612904565b82525050565b6000602082019050612ba96000830184612b85565b92915050565b6000612bba826128e4565b9050919050565b612bca81612baf565b8114612bd557600080fd5b50565b600081359050612be781612bc1565b92915050565b600060208284031215612c0357612c026128da565b5b6000612c1184828501612bd8565b91505092915050565b600080fd5b7f4e487b7100000000000000000000000000000000000000000000000000000000600052604160045260246000fd5b612c5782612b19565b810181811067ffffffffffffffff82111715612c7657612c75612c1f565b5b80604052505050565b6000612c896128d0565b9050612c958282612c4e565b919050565b600067ffffffffffffffff821115612cb557612cb4612c1f565b5b602082029050602081019050919050565b600080fd5b6000612cde612cd984612c9a565b612c7f565b90508083825260208201905060208402830185811115612d0157612d00612cc6565b5b835b81811015612d2a5780612d168882612963565b845260208401935050602081019050612d03565b5050509392505050565b600082601f830112612d4957612d48612c1a565b5b8135612d59848260208601612ccb565b91505092915050565b600080fd5b600067ffffffffffffffff821115612d8257612d81612c1f565b5b612d8b82612b19565b9050602081019050919050565b82818337600083830152505050565b6000612dba612db584612d67565b612c7f565b905082815260208101848484011115612dd657612dd5612d62565b5b612de1848285612d98565b509392505050565b600082601f830112612dfe57612dfd612c1a565b5b8135612e0e848260208601612da7565b91505092915050565b600080600080600060a08688031215612e3357612e326128da565b5b6000612e418882890161292d565b9550506020612e528882890161292d565b945050604086013567ffffffffffffffff811115612e7357612e726128df565b5b612e7f88828901612d34565b935050606086013567ffffffffffffffff811115612ea057612e9f6128df565b5b612eac88828901612d34565b925050608086013567ffffffffffffffff811115612ecd57612ecc6128df565b5b612ed988828901612de9565b9150509295509295909350565b612eef81612a67565b8114612efa57600080fd5b50565b600081359050612f0c81612ee6565b92915050565b600060208284031215612f2857612f276128da565b5b6000612f3684828501612efd565b91505092915050565b60008060408385031215612f5657612f556128da565b5b6000612f6485828601612963565b9250506020612f7585828601612963565b9150509250929050565b600067ffffffffffffffff821115612f9a57612f99612c1f565b5b602082029050602081019050919050565b6000612fbe612fb984612f7f565b612c7f565b90508083825260208201905060208402830185811115612fe157612fe0612cc6565b5b835b8181101561300a5780612ff6888261292d565b845260208401935050602081019050612fe3565b5050509392505050565b600082601f83011261302957613028612c1a565b5b8135613039848260208601612fab565b91505092915050565b60008060408385031215613059576130586128da565b5b600083013567ffffffffffffffff811115613077576130766128df565b5b61308385828601613014565b925050602083013567ffffffffffffffff8111156130a4576130a36128df565b5b6130b085828601612d34565b9150509250929050565b600081519050919050565b600082825260208201905092915050565b6000819050602082019050919050565b6130ef81612942565b82525050565b600061310183836130e6565b60208301905092915050565b6000602082019050919050565b6000613125826130ba565b61312f81856130c5565b935061313a836130d6565b8060005b8381101561316b57815161315288826130f5565b975061315d8361310d565b92505060018101905061313e565b5085935050505092915050565b60006020820190508181036000830152613192818461311a565b905092915050565b600080604083850312156131b1576131b06128da565b5b60006131bf8582860161292d565b92505060206131d085828601612efd565b9150509250929050565b6000602082840312156131f0576131ef6128da565b5b60006131fe8482850161292d565b91505092915050565b600067ffffffffffffffff82111561322257613221612c1f565b5b61322b82612b19565b9050602081019050919050565b600061324b61324684613207565b612c7f565b90508281526020810184848401111561326757613266612d62565b5b613272848285612d98565b509392505050565b600082601f83011261328f5761328e612c1a565b5b813561329f848260208601613238565b91505092915050565b600080604083850312156132bf576132be6128da565b5b60006132cd85828601612963565b925050602083013567ffffffffffffffff8111156132ee576132ed6128df565b5b6132fa8582860161327a565b9150509250929050565b6000806040838503121561331b5761331a6128da565b5b60006133298582860161292d565b925050602061333a8582860161292d565b9150509250929050565b600080600080600060a086880312156133605761335f6128da565b5b600061336e8882890161292d565b955050602061337f8882890161292d565b945050604061339088828901612963565b93505060606133a188828901612963565b925050608086013567ffffffffffffffff8111156133c2576133c16128df565b5b6133ce88828901612de9565b9150509295509295909350565b7f455243313135353a2061646472657373207a65726f206973206e6f742061207660008201527f616c6964206f776e657200000000000000000000000000000000000000000000602082015250565b6000613437602a83612ad5565b9150613442826133db565b604082019050919050565b600060208201905081810360008301526134668161342a565b9050919050565b7f4e487b7100000000000000000000000000000000000000000000000000000000600052602260045260246000fd5b600060028204905060018216806134b457607f821691505b6020821081036134c7576134c661346d565b5b50919050565b7f4e487b7100000000000000000000000000000000000000000000000000000000600052601260045260246000fd5b7f4e487b7100000000000000000000000000000000000000000000000000000000600052601160045260246000fd5b600061353682612942565b915061354183612942565b925082613551576135506134cd565b5b828204905092915050565b7f5468697320576569206973206e6f7420656e6f75676820746f2062757920612060008201527f4d4d542e00000000000000000000000000000000000000000000000000000000602082015250565b60006135b8602483612ad5565b91506135c38261355c565b604082019050919050565b600060208201905081810360008301526135e7816135ab565b9050919050565b7f455243313135353a2063616c6c6572206973206e6f7420746f6b656e206f776e60008201527f6572206e6f7220617070726f7665640000000000000000000000000000000000602082015250565b600061364a602f83612ad5565b9150613655826135ee565b604082019050919050565b600060208201905081810360008301526136798161363d565b9050919050565b7f6f6e6c792070726f64756365722063616e2063616c6c20746869732e00000000600082015250565b60006136b6601c83612ad5565b91506136c182613680565b602082019050919050565b600060208201905081810360008301526136e5816136a9565b9050919050565b7f556e72656769737465726564206974656d2063616e6e6f742062652070726f6460008201527f756365642e000000000000000000000000000000000000000000000000000000602082015250565b6000613748602583612ad5565b9150613753826136ec565b604082019050919050565b600060208201905081810360008301526137778161373b565b9050919050565b7f4f6e6c792074686520676f7665726e6d656e742063616e2070726f647563652060008201527f746f6b656e732e00000000000000000000000000000000000000000000000000602082015250565b60006137da602783612ad5565b91506137e58261377e565b604082019050919050565b60006020820190508181036000830152613809816137cd565b9050919050565b7f455243313135353a206163636f756e747320616e6420696473206c656e67746860008201527f206d69736d617463680000000000000000000000000000000000000000000000602082015250565b600061386c602983612ad5565b915061387782613810565b604082019050919050565b6000602082019050818103600083015261389b8161385f565b9050919050565b7f4e487b7100000000000000000000000000000000000000000000000000000000600052603260045260246000fd5b60006138dc82612942565b91507fffffffffffffffffffffffffffffffffffffffffffffffffffffffffffffffff820361390e5761390d6134fc565b5b600182019050919050565b7f6f6e6c7920676f727665726e616e63652063616e2063616c6c20746869730000600082015250565b600061394f601e83612ad5565b915061395a82613919565b602082019050919050565b6000602082019050818103600083015261397e81613942565b9050919050565b600081905092915050565b60008190508160005260206000209050919050565b600081546139b28161349c565b6139bc8186613985565b945060018216600081146139d757600181146139ec57613a1f565b60ff1983168652811515820286019350613a1f565b6139f585613990565b60005b83811015613a17578154818901526001820191506020810190506139f8565b838801955050505b50505092915050565b6000613a3382612aca565b613a3d8185613985565b9350613a4d818560208601612ae6565b80840191505092915050565b6000613a6582856139a5565b9150613a718284613a28565b91508190509392505050565b6000613a898285613a28565b9150613a9582846139a5565b91508190509392505050565b7f4f766572207a65726f2e00000000000000000000000000000000000000000000600082015250565b6000613ad7600a83612ad5565b9150613ae282613aa1565b602082019050919050565b60006020820190508181036000830152613b0681613aca565b9050919050565b7f546f6b656e206973206e6f7420656e6f75676820746f2065786368616e67652060008201527f666f722061205765692e00000000000000000000000000000000000000000000602082015250565b6000613b69602a83612ad5565b9150613b7482613b0d565b604082019050919050565b60006020820190508181036000830152613b9881613b5c565b9050919050565b6000613baa82612942565b9150613bb583612942565b9250817fffffffffffffffffffffffffffffffffffffffffffffffffffffffffffffffff0483118215151615613bee57613bed6134fc565b5b828202905092915050565b7f455243313135353a2073657474696e6720617070726f76616c2073746174757360008201527f20666f722073656c660000000000000000000000000000000000000000000000602082015250565b6000613c55602983612ad5565b9150613c6082613bf9565b604082019050919050565b60006020820190508181036000830152613c8481613c48565b9050919050565b7f455243313135353a2069647320616e6420616d6f756e7473206c656e6774682060008201527f6d69736d61746368000000000000000000000000000000000000000000000000602082015250565b6000613ce7602883612ad5565b9150613cf282613c8b565b604082019050919050565b60006020820190508181036000830152613d1681613cda565b9050919050565b7f455243313135353a207472616e7366657220746f20746865207a65726f20616460008201527f6472657373000000000000000000000000000000000000000000000000000000602082015250565b6000613d79602583612ad5565b9150613d8482613d1d565b604082019050919050565b60006020820190508181036000830152613da881613d6c565b9050919050565b7f455243313135353a20696e73756666696369656e742062616c616e636520666f60008201527f72207472616e7366657200000000000000000000000000000000000000000000602082015250565b6000613e0b602a83612ad5565b9150613e1682613daf565b604082019050919050565b60006020820190508181036000830152613e3a81613dfe565b9050919050565b6000613e4c82612942565b9150613e5783612942565b9250827fffffffffffffffffffffffffffffffffffffffffffffffffffffffffffffffff03821115613e8c57613e8b6134fc565b5b828201905092915050565b60006040820190508181036000830152613eb1818561311a565b90508181036020830152613ec5818461311a565b90509392505050565b7f455243313135353a206d696e7420746f20746865207a65726f2061646472657360008201527f7300000000000000000000000000000000000000000000000000000000000000602082015250565b6000613f2a602183612ad5565b9150613f3582613ece565b604082019050919050565b60006020820190508181036000830152613f5981613f1d565b9050919050565b6000604082019050613f7560008301856129b8565b613f8260208301846129b8565b9392505050565b7f455243313135353a206275726e2066726f6d20746865207a65726f206164647260008201527f6573730000000000000000000000000000000000000000000000000000000000602082015250565b6000613fe5602383612ad5565b9150613ff082613f89565b604082019050919050565b6000602082019050818103600083015261401481613fd8565b9050919050565b7f455243313135353a206275726e20616d6f756e7420657863656564732062616c60008201527f616e636500000000000000000000000000000000000000000000000000000000602082015250565b6000614077602483612ad5565b91506140828261401b565b604082019050919050565b600060208201905081810360008301526140a68161406a565b9050919050565b60006020601f8301049050919050565b600082821b905092915050565b6000600883026140fa7fffffffffffffffffffffffffffffffffffffffffffffffffffffffffffffffff826140bd565b61410486836140bd565b95508019841693508086168417925050509392505050565b6000819050919050565b600061414161413c61413784612942565b61411c565b612942565b9050919050565b6000819050919050565b61415b83614126565b61416f61416782614148565b8484546140ca565b825550505050565b600090565b614184614177565b61418f818484614152565b505050565b5b818110156141b3576141a860008261417c565b600181019050614195565b5050565b601f8211156141f8576141c981613990565b6141d2846140ad565b810160208510156141e1578190505b6141f56141ed856140ad565b830182614194565b50505b505050565b600082821c905092915050565b600061421b600019846008026141fd565b1980831691505092915050565b6000614234838361420a565b9150826002028217905092915050565b61424d82612aca565b67ffffffffffffffff81111561426657614265612c1f565b5b614270825461349c565b61427b8282856141b7565b600060209050601f8311600181146142ae576000841561429c578287015190505b6142a68582614228565b86555061430e565b601f1984166142bc86613990565b60005b828110156142e4578489015182556001820191506020850194506020810190506142bf565b8683101561430157848901516142fd601f89168261420a565b8355505b6001600288020188555050505b505050505050565b600081519050919050565b600082825260208201905092915050565b600061433d82614316565b6143478185614321565b9350614357818560208601612ae6565b61436081612b19565b840191505092915050565b600060a0820190506143806000830188612b85565b61438d6020830187612b85565b818103604083015261439f818661311a565b905081810360608301526143b3818561311a565b905081810360808301526143c78184614332565b90509695505050505050565b6000815190506143e281612a0e565b92915050565b6000602082840312156143fe576143fd6128da565b5b600061440c848285016143d3565b91505092915050565b60008160e01c9050919050565b600060033d11156144415760046000803e61443e600051614415565b90505b90565b600060443d106144d1576144566128d0565b60043d036004823e80513d602482011167ffffffffffffffff8211171561447e5750506144d1565b808201805167ffffffffffffffff81111561449c57505050506144d1565b80602083010160043d0385018111156144b95750505050506144d1565b6144c882602001850186612c4e565b82955050505050505b90565b7f455243313135353a207472616e7366657220746f206e6f6e204552433131353560008201527f526563656976657220696d706c656d656e746572000000000000000000000000602082015250565b6000614530603483612ad5565b915061453b826144d4565b604082019050919050565b6000602082019050818103600083015261455f81614523565b9050919050565b7f455243313135353a204552433131353552656365697665722072656a6563746560008201527f6420746f6b656e73000000000000000000000000000000000000000000000000602082015250565b60006145c2602883612ad5565b91506145cd82614566565b604082019050919050565b600060208201905081810360008301526145f1816145b5565b9050919050565b600060a08201905061460d6000830188612b85565b61461a6020830187612b85565b61462760408301866129b8565b61463460608301856129b8565b81810360808301526146468184614332565b9050969550505050505056fea2646970667358221220e562e83d150ed37f99dac73344b0422197fbce700745a87e881bdcc8bd8078a064736f6c634300080f0033",
  "immutableReferences": {},
  "source": "// SPDX-License-Identifier: MIT\npragma solidity >=0.5.16;\n\nimport \"../node_modules/@openzeppelin/contracts/token/ERC1155/ERC1155.sol\";\n\ncontract ItemContract is ERC1155 {\n\n    uint256 internal _itemId; //item length\n\n    address payable internal _governance;\n\n    string[2] baseURI = [\"https://ipfs.io/ipfs/\", \"/{id}.json\"];\n\n    mapping(uint256 => address) internal _producerOf; // _itemId => producer;\n    mapping(address => bool) internal _isProducer;\n    mapping(address => bool) internal _isManager;\n    mapping(address => uint256[]) internal _mintList;\n\n\n    constructor(string memory _dirCID) ERC1155(string.concat(string.concat(baseURI[0], _dirCID),baseURI[1])) {\n        _itemId = 1;\n        _governance = payable(msg.sender);\n    }\n    \n    function getProducerOf(uint256 itemId) external view returns(address){\n        return _producerOf[itemId];\n    }\n\n    function getIsProducer(address _user) public view returns(bool){\n        return _isProducer[_user];\n    } \n\n    function getMsgSender() public view returns(address){\n        return msg.sender;\n    }\n\n    function getIsManager() public view returns(bool){\n        return _isManager[msg.sender];\n    }\n\n    function setGovernance(address auctionAddress) public onlyGovernance(){\n        _governance = payable(auctionAddress);\n        _isProducer[_governance] = true;\n        _isManager[_governance] = true;\n        _mint(_governance, 0, 10**18, \"\");\n        _mintList[_governance].push(0); \n    }\n\n    function setApprovalForAll(address _owner, address _operator, bool _approved) internal {\n        _setApprovalForAll(_owner, _operator, _approved);\n    }\n\n    function getGovernance() public view returns(address){\n        return _governance;\n    }\n\n    function setApprovalForUser(address _user, bool _approved) public{\n        require(_governance != address(0));\n        if(_user != _governance){\n            _setApprovalForAll(_user, _governance, _approved);\n            //_setApprovalForAll(_governance, _user, _approved);\n        }\n    }\n\n    modifier onlyProducer(){\n        require(_isProducer[msg.sender] || _governance == msg.sender, \"only producer can call this.\");\n        _;\n    }\n\n    modifier onlyGovernance(){\n        require(msg.sender == _governance, \"only gorvernance can call this\");\n        _;\n    }\n\n    function WeitoMMT(address payable _user) public payable {\n        require(msg.value > 0, \"This Wei is not enough to buy a MMT.\");\n        _setApprovalForAll(_governance, _user, true);\n        safeTransferFrom  (_governance, _user, 0, msg.value, \"\");\n        _setApprovalForAll(_governance, _user, false);\n    }\n\n    function ETHtoMMT(address payable _user) public payable {\n        uint256 amount = msg.value/(10**18);\n        require(msg.value > 0, \"This Wei is not enough to buy a MMT.\");\n        _setApprovalForAll(_governance, _user, true);\n        safeTransferFrom  (_governance, _user, 0, amount, \"\");\n        _setApprovalForAll(_governance, _user, false);\n    }\n\n    function MMTtoETH(uint256 amount) public payable {\n        require(amount > 0, \"Over zero.\");\n        require(balanceOf(msg.sender, 0) >= amount, \"Token is not enough to exchange for a Wei.\");\n        payable(msg.sender).transfer(amount*(10**18));\n        safeTransferFrom(msg.sender, _governance, 0, amount, \"\");\n    } \n\n    function mintMMT(uint256 _amount) public onlyGovernance(){\n        _mint(msg.sender, 0, _amount, \"\");\n    }\n\n    function mintItemByItemId(uint256 stock, uint256 itemId) public onlyProducer(){\n        require(itemId <= _itemId, \"Unregistered item cannot be produced.\");\n        require(itemId != 0 || msg.sender == _governance, \"Only the government can produce tokens.\");\n        _mint(msg.sender, itemId, stock, \"\");\n    }\n\n    function getItemId() public view returns(uint256){\n        return _itemId;\n    }\n\n    function createItem(uint256 amount, string memory dirCID) public onlyProducer(){\n        string memory newURI = string.concat(string.concat(baseURI[0], dirCID), baseURI[1]);\n        _setURI(newURI);\n        _mint(msg.sender, _itemId, amount, \"\");\n        _mintList[msg.sender].push(_itemId);\n        _producerOf[_itemId] = msg.sender;\n        _itemId++;\n    }\n\n    function getURI(uint256 itemId) public view returns(string memory){\n        return uri(itemId);\n    }\n\n    function burn(uint256 itemId, uint256 _amount) public{\n        _burn(msg.sender, itemId, _amount);\n    }\n\n    function setUserToProducer(bool flag) public {\n        _isProducer[msg.sender] = flag;\n    }\n\n    function setUserToManager(bool flag) public {\n        _isManager[msg.sender] = flag;\n    }\n\n}",
  "sourcePath": "/Users/c_rbi/PNU_test-main/back-end/smart_contract/contracts/Item.sol",
  "compiler": {
    "name": "solc",
    "version": "0.8.15+commit.e14f2714.Emscripten.clang"
  },
  "schemaVersion": "3.4.10",
  "updatedAt": "2022-10-14T16:31:32.531Z",
  "networkType": "ethereum",
  "devdoc": {
    "kind": "dev",
    "methods": {
      "balanceOf(address,uint256)": {
        "details": "See {IERC1155-balanceOf}. Requirements: - `account` cannot be the zero address."
      },
      "balanceOfBatch(address[],uint256[])": {
        "details": "See {IERC1155-balanceOfBatch}. Requirements: - `accounts` and `ids` must have the same length."
      },
      "isApprovedForAll(address,address)": {
        "details": "See {IERC1155-isApprovedForAll}."
      },
      "safeBatchTransferFrom(address,address,uint256[],uint256[],bytes)": {
        "details": "See {IERC1155-safeBatchTransferFrom}."
      },
      "safeTransferFrom(address,address,uint256,uint256,bytes)": {
        "details": "See {IERC1155-safeTransferFrom}."
      },
      "setApprovalForAll(address,bool)": {
        "details": "See {IERC1155-setApprovalForAll}."
      },
      "supportsInterface(bytes4)": {
        "details": "See {IERC165-supportsInterface}."
      },
      "uri(uint256)": {
        "details": "See {IERC1155MetadataURI-uri}. This implementation returns the same URI for *all* token types. It relies on the token type ID substitution mechanism https://eips.ethereum.org/EIPS/eip-1155#metadata[defined in the EIP]. Clients calling this function must replace the `\\{id\\}` substring with the actual token type ID."
      }
    },
    "version": 1
  },
  "userdoc": {
    "kind": "user",
    "methods": {},
    "version": 1
  }
}